S01C0000436564726F6E6963734C696E65466F6C6C6F7765722E68657804
S113000000300020E5310000D5250000E125000086
S1130010E1250000E1250000E1250000E1250000C4
S1130020E1250000E1250000E1250000E1250000B4
S1130030E1250000E1250000E1250000CD210000BC
S1130040E1250000E1250000E1250000E125000094
S1130050E1250000E1250000E1250000E125000084
S1130060E1250000E1250000E1250000E125000074
S1130070E1250000E1250000E125000091310000A8
S1130080E1250000E1250000E1250000E125000054
S1130090E1250000E1250000E1250000E125000044
S11300A0E1250000E1250000E1250000E125000034
S11300B0CD1D0000E1250000E1250000E125000040
S1130400FFFFFFFFFFFFFFFFFFFFFFFF7EFFFFFF79
S113041002B4714649084900095649008E4402BC99
S11304207047C04602B4714649084900095C490056
S11304308E4402BC7047C046002934D001230022F8
S113044010B488422CD301242407A14204D281424F
S113045002D209011B01F8E7E400A14204D281425F
S113046002D249005B00F8E7884201D3401A1A43DC
S11304704C08A04202D3001B5C0822438C08A04213
S113048002D3001B9C082243CC08A04202D3001BC9
S1130490DC082243002803D01B0901D00909E3E743
S11304A0101C10BC7047002801D00020C04307B4C2
S11304B0024802A14018029003BDC0461900000082
S11304C00029F0D003B5FFF7B9FF0EBC4243891AE7
S11304D01847C0467047C0468446101C62468C4686
S11304E0191C634600E0C0461FB501F045F800281A
S11304F001D40021C8421FBD10B500F08BFF40425B
S1130500013010BD10B501F037F8002801DB0020E0
S113051010BD012010BDC04610B501F02DF8002813
S113052001DD002010BD012010BDC04610B500F053
S1130530AFFF002801DC002010BD012010BDC04623
S113054010B500F0A5FF002801DA002010BD01203D
S113055010BDC0468446081C6146FFE71FB500F085
S1130560BBF8002801D40021C8421FBD10B500F01B
S113057043F84042013010BD10B500F0ADF800283A
S113058001DB002010BD012010BDC04610B500F0F5
S1130590A3F8002801DD002010BD012010BDC046D5
S11305A010B500F051F8002801DC002010BD012036
S11305B010BDC04610B500F047F8002801DA00204D
S11305C010BD012010BDC0469E2110B5C905041CF4
S11305D0FFF7F0FF002803D1201C00F0CBFB10BD77
S11305E09E22201CD10500F0EFF900F0C3FB80230C
S11305F01C060019F3E7C0464302420070B55C0ACA
S1130600C60F130E48024A00450A120EC90FFF2BEB
S113061005D0FF2A08D0012093420BD070BD0120E1
S1130620002CFBD1FF2AF6D10120002DF6D10120A8
S11306309342F3D1AC42F1D18E4203D0002BEDD1E1
S1130640002CEBD10020E9E7F0B5430242004F0053
S1130650C60F48025C0A450A130EC90F3A0EFF2B57
S113066026D0FF2A29D0002B0CD160426041844659
S1130670002A0AD0002816D18E4221D0002E14D18F
S1130680012014E0002AF7D194466F426F4160467E
S1130690002805D1002FEFD00120002E07D004E060
S11306A00020002F03D10029EAD101214842F0BDE6
S11306B0002CD6D002225042F9E7002DD3D0F9E71E
S11306C09342DBDC04DBAC42D8D80020AC42EED24F
S11306D0002EEAD00120EAE7F0B5430242004F00C1
S11306E0C60F48025C0A450A130EC90F3A0EFF2BC7
S11306F026D0FF2A28D0002B0FD0002A14D19446EC
S11307006F426F416046002814D00020002F03D1AF
S113071000290DD101214842F0BD60426041844668
S1130720002AEDD00028F3D18E4211D0002EF1D151
S11307300120F1E7002FF7D00120002EECD0E9E7EB
S11307400220002CE8D1D4E70220002DE4D1D2E726
S11307509342EBDC04DBAC42E8D80020AC42DBD2B1
S1130760002ED7D00120D7E7F0B55F4656464D4658
S11307704446F0B44502460083B00F1C6D0A360EA1
S1130780C40F002E06D1002D70D104210122884609
S1130790924609E0FF2E43D080231804002105432C
S11307A0ED007F3E88468A46381C43007F02C10F15
S11307B07F0A1B0E8B463AD10121002F62D1584685
S11307C06040424601900A430F2A3FD92C04F01896
S11307D0260C3B041A0C311C51433F0C2D0C7E4358
S11307E06A438146080C36182C1CB3187C439A4281
S11307F000D99AE009041D04080C2E18B5011B0C3D
S1130800691E8D41B20EE7181543BC0125432B0127
S11308104BD50120284001216D088944054344E05B
S1130820002D1ED10820022180468A46BCE7FF2BFA
S113083012D08022100407435846002160404246EB
S1130840FF007F3B01900A430F2ABFD890005B4A08
S11308508446624410688746391C4A1E914102311D
S1130860ADE70C22032390469A469DE7281C01F02D
S113087093F97622461F5342B5401E1A0020804643
S1130880824691E7381C01F087F97621431F4A42DA
S11308909F400021131A92E70194514602292CD05B
S11308A0032900D180E0012948D04E467F36002E2E
S11308B051DD0F242C40042C00D004352A0103D52B
S11308C03F494E460D408036FE2E3DDD019B0124FE
S11308D01C40FF210025C805E2072843104303B04C
S11308E03CBC90469946A246AB46F0BD0024354D2B
S11308F0FF21F0E751460229D2D1019D01242C4069
S1130900FF210025E7E75E463D1C0196C6E73D1C36
S1130910C4E78026F3031D420BD01F4209D11F43B5
S11309207A02550A5C46FF21D5E780225702E41972
S113093060E71D436F027D0AFF21CCE7019B002580
S11309401940CCB20021C6E70198AD0101246D0A1B
S1130950F1B20440BFE77E2673424A469F1A1B2F1A
S113096005DD019D01242C4000210025B3E7494603
S11309709E312C1C8D402E1CFC40751EAE4126431E
S11309800F203040042800D00436700105D5019FA3
S113099001243C40012100259DE7019AB301012473
S11309A05D0A1440002196E78022D00305436C02BF
S11309B00199650A01240C40FF218CE7AC46000034
S11309C0FFFFFFF7FFFF7F00F8B5430245004F022A
S11309D04C00C20F980984462D0E200EC90FBF0982
S11309E0FF2851D0012671408A4238D02C1A002C9D
S11309F000DC86E0002822D1002F48D16E1C2C1C7C
S1130A006346151C0F221A40042A00D00433012225
S1130A102A40580106D5FF2E00D181E0B04D341C88
S1130A202B400136F6B2DD08012E62DD6802450A6C
S1130A30E4B2E4052543281CD2071043F8BDFF2D7A
S1130A4051D08021CB041F4301261B2C70DD674647
S1130A502C1CBB1B151C580122D4661CD2E72E1A71
S1130A60002E76DD002832D0FF2D3CD08024E10416
S1130A700F4301231B2E00DCD1E063442C1C5801DE
S1130A807AD4661C151CBDE7002FADD1AAE7013C42
S1130A90002C6DD163462C1CDB1B151C5801DCD5C6
S1130AA09A019609301C01F077F805388640844293
S1130AB039DC001B1F231A1A331C311C441C9340BD
S1130AC0E1405E1EB3410B43012600249AE7002F48
S1130AD000D193E7013E002E03D164463B192C1C40
S1130AE0CDE7FF2DC5D1151C802263465600FF2497
S1130AF088E7002D9CD0002C28D08027F9030D43D3
S1130B0094E7002C45D16B1CD8B2012800DC90E09E
S1130B106446E61B730157D53E1B2C1C0D1CC1E714
S1130B20FF24002585E76E4B241A3340661C69E7D1
S1130B30381C2021E0400C1BA7403E1C771EBE4100
S1130B40064367462C1CBB1B151C84E76B025D0A1D
S1130B506FE7002E79D16C1CE0B201284BDDFF2C2D
S1130B6000D198E061467F18AE1C7B08151C49E74C
S1130B70FF2D00D068E7B6E7671CFF2F36D0584832
S1130B800121194003405B08A61C0B433C1C151CA7
S1130B9038E76642002D1ED0FF286FD080256246BC
S1130BA0EB041A43944601251B2E09DC62462023DC
S1130BB0F24064469E1BB440251C6C1EA54115439F
S1130BC07B1B041C0D1C69E7002E0CD1002201269E
S1130BD0042300241DE76446002C55D1461C3B1C0D
S1130BE0041C0D1C0EE72C1C151C5BE780235E0007
S1130BF0FF2404230DE7002D00D08CE06546002D72
S1130C0000D1ACE0002F00D180E07B195C0100D45E
S1130C107DE0334F151C3B4002260124F2E6381CCC
S1130C202023F0409E1BB7403B1C5F1EBB41034387
S1130C3023E7002D15D16546002D47D1002FC5D0DF
S1130C403B1C0D1C01260024DCE67642002D26D137
S1130C506546002D00D07CE0461C3B1C041C151C82
S1130C60D0E66546002D3FD1002F07D18021002218
S1130C704E001C4BFF24CCE6FF2894D180203B1C63
S1130C800D1C4600FF24BDE6013E002EF4D13B1BA3
S1130C900D1C041C02E780256E000423B9E6FF281E
S1130CA051D080246146E30419438C4601231B2E52
S1130CB009DC20216446F44065468E1BB5402B1C9C
S1130CC0591E8B412343DB19041CD8E6002F1DD089
S1130CD0EB1B58014AD57B1B01260D1C002491E611
S1130CE0FFFFFFFBFCFFFF03002F00D1FBE680208A
S1130CF0EB08C403234237D0FF08274234D13B1CFE
S1130D000D1C8022DB005600FF247BE66346151C85
S1130D100126002476E66446002C14D0002F00D16E
S1130D20E1E68023E608D803311C064203D0F90823
S1130D30014200D0311C151C8022CB005600FF2438
S1130D4060E6FF28B2D180203B1C151C4600FF241E
S1130D5058E6013E002EF4D17B19041C8FE63B1C9F
S1130D60151C012600244DE6151CCAE7002B00D1F2
S1130D702CE7CCE743024200590A00B5130EC20F18
S1130D8000207E2B0DDD9D2B0CDC80200004014314
S1130D90952B0ADC9620C31AD9404842002A00D178
S1130DA0081C00BD02495018FBE7963B9940F4E744
S1130DB0FFFFFF7F70B5041E3CD0C50F00D0444236
S1130DC0201C00F0E9FE9E21261C0B1A962B0ADC3F
S1130DD00838844061024C0ADBB2DB051C43ED0792
S1130DE0201C284370BD992B0ADD0522141A311CDE
S1130DF0E140041C1B34A6400A1C711E8E4116439C
S1130E0005281BDC144C0F2234401640042E00D05D
S1130E100434620105D59F231B1AFF2B0CD00E4806
S1130E2004405E1CF1B2E40801290ADD6402640A8C
S1130E30DBB2D2E7002500230024CEE7411F8E4019
S1130E40E0E7002CF4D0002B03D08022D00304432D
S1130E50ECE76602740AC0E7FFFFFFFBF0B54D46FE
S1130E6044465F465646F0B41D1C4B00141C0E034A
S1130E705B0DCA0F87B0071C360B98469146002BB2
S1130E801DD1321C024300D181E1002E00D104E2C5
S1130E90301C00F081FE272800DDF8E12821031C26
S1130EA0083B0A1A391C9E40D1400E439F40C14B57
S1130EB00021181A002280468A4600920FE0BE489C
S1130EC0834231D080214B031E43BC487A0FF60085
S1130ED0002100231643FF0080448A460093291C06
S1130EE0201C251C4A000C03CB0F240B520D9B46DF
S1130EF025D1211C014300D150E1002C00D1C2E1D5
S1130F00201C00F049FE272800DDB6E1031C28223E
S1130F10083B291C121A9C40D1400C439D40A54B10
S1130F201A1A0020029019E0321C3A4300D029E139
S1130F3008270223BA46002600270093CFE79E48DD
S1130F40824200D113E180214B031C439B49680F6B
S1130F50E40000230443ED005218029348465B4624
S1130F60434002985146019301430F2900D8DFE022
S1130F7043469A1A0492A64200D86EE171087B088F
S1130F80F6073343FA07894698460292280E24024C
S1130F9004432D022704390CAB46250C0091484626
S1130FA0291CFFF749FA009F061C4743291C4846A1
S1130FB0FFF786FA434608041A0C1043874207D900
S1130FC00019013E844203D8874201D9013E001929
S1130FD0C11B8A46081C291CFFF72EFA009B071C1C
S1130FE04343291C50469946FFF76AFA42461004C7
S1130FF00B04010C0B43994504D91B19013F9C4276
S113100000D864E136043E435F464A46390C8946BB
S11310109B1A59463204170C0A0449467943120CA8
S113102003928C460399300C7A4341434F467843EC
S11310308C44170C6744B94202D9802149024018F4
S1131040390C120440183F04110C7F18834200D25B
S113105027E100D141E102991B1ACF1BB94280411B
S113106041425A1A9046A24200D15FE1101C291C49
S1131070FFF7E2F9009B02904343291C40469A463D
S1131080FFF71EFA380C090401438A450AD9029A6B
S11310900919013A02928C4204D88A4502D9013ACC
S11310A0029209195346C81A291C0590FFF7C4F97E
S11310B0009A291C4243804605989246FFF700FA9D
S11310C03F040D043A0C2A43924509D901214B42AD
S11310D012199844944203D8924501D9984412199C
S11310E0029D43462F041F435046111A3804030C33
S11310F04D465D430398AC46039D3A0C5843554313
S11311004B465A43AC44030C63449D4202D98025A8
S11311106D0252191D0C000452191B04050C5B19B5
S1131120914200D2E6E000D13DE1012217435AE0AA
S1131130890023488C46604401688F46019B1E4AFF
S11311400026002700200021381C0F0D3C051D4DF2
S113115034431205254015436E00DB07710819431B
S113116007B03CBC90469946A246AB46F0BD211C54
S113117003202943029000D0F0E602230024002536
S11311800293EBE60C20032182460091A7E6042794
S11311900123BA46002600270093A0E6012100247B
S11311A000250291DAE601270023074E7F42024A16
S11311B0C8E7C0460DFCFFFFFF07000001FCFFFF6E
S11311C0EC460000FFFF0F80FFFF0F002F1C5A4664
S11311D0029D261C0192022DB0D0032D00D101E105
S11311E0012D00D19CE0049B82481A18002A00DCDF
S11311F08CE00F243C40042C05D03B1DBB42BF4176
S11312007D4276191F1CF10105D57B4A0499802083
S1131210C40016400A19794B9A4200DD8EE775071F
S1131220FF08760251052F43360B4A0D019B89E7CF
S113123000220026002785E7802001030E4216D0F5
S11312400C4214D10C432603360B5B462F1C6C4A0C
S113125078E74C460194009DBDE7A64243D004982C
S1131260B846013800270490B14602978EE60E4333
S113127033031E0B624A4B4664E7041C283CA5401A
S11312802C1C00254BE600F087FC20303BE6061CB6
S1131290283EB7403E1C002709E600F07DFC2030C4
S11312A0F9E5029A013E111C5944594592415242B2
S11312B01219D3189C4204D298426BD816D01B1A28
S11312C0CBE6A342FBD18B45F6D9231AC5E6994553
S11312D000D897E6013F1B1994E6029ABA42E0D37C
S11312E002990023B9E6AF42B9D947E68F4251D8F3
S11312F00023B2E60919013F58468C4219D991429C
S113130000D012E7984200D00FE76CE73D4C049DF3
S1131310631B382B1CDD019B00220026002711E7EC
S1131320019B00222B40002600270BE701277F4268
S113133059E78A4203D800D0F7E69842E2D25D46E4
S113134068005845AD416D422C19013F0919D6E793
S11313501F2B34DC049C2C4A381CA518311CAF40CC
S1131360D840A9403C1C0143671EBC410F1C2743C5
S1131370DE400F233B40042B05D03A1DBA42BF4147
S11313807D427619171C320211D5019B01220026D9
S11313900027D7E659445945924152421219D318AD
S11313A0013E1B1A59E6002BA4D10020AAE77007BE
S11313B0FF08710207430E0B019B0022C2E613498A
S11313C0049C301C0A1BD040051C202B08D0104B59
S11313D0E1188E4037437B1E9F412F430026C8E708
S11313E00026F7E780221003064331030E0B019B0E
S11313F0034AA7E6FF030000FFFFFFFEFE0700000D
S1131400FF07000002FCFFFF1E040000E2FBFFFFD9
S11314103E040000F0B5944647461A03061C5800E3
S113142080B4170B420D19480D034C00DB0F2D0B34
S1131430640DC90F9846844208D0144882420DD0E6
S11314400120944212D004BC9046F0BD2B1C3343BF
S11314500120002BF7D10D488242F1D163463B4372
S11314600120002BEFD101209442ECD1BD42EAD1FE
S11314706645E8D1414506D0002CE4D1281C304310
S1131480451EA841DFE70020DDE7C046FF07000056
S1131490F0B557464E464546E0B4041C4E000803DA
S11314A0C90F8A46171C59001A03050B700D160B39
S11314B04A0D3049DB0F9C46884232D02D498A427E
S11314C035D000280FD1291C21434B424B4198466B
S11314D0002A0BD0002B1AD1E2452CD05546002D02
S11314E018D1012018E0002AF6D19046311C394366
S11314F04B424B414146002906D1002BECD05646C5
S11315000120002E08D005E00020002B04D16746FE
S1131510002FE6D1012358421CBC90469946A246AE
S1131520F0BD2B1C2343C9D002214842F4E7331CED
S11315303B43C6D0F8E7904205DC09DA5246002A5C
S1131540E8D00120E8E75446002CE3D10120E3E78A
S1131550B542C3D807D00020B542DDD2504600289A
S1131560D8D00120D8E7BC42B8D80020BC42F5D37B
S1131570D2E7C046FF070000F0B544465F46564632
S11315804D46F0B49446061C1A035800170B420D3E
S11315902E480D034C00DB0F2D0B640DC90F98462C
S11315A0844233D02948824236D0002C19D0002AF4
S11315B020D1934663463B43584258415B4682469A
S11315C0002B1DD051460020002904D14246002A98
S11315D014D1012460423CBC90469946A246AB46D5
S11315E0F0BD2B1C3343584243419B46002AE1D0B3
S11315F0002BEBD1414515D00029EAD10120EAE7BF
S11316000028F7D001200029E5D0E2E72B1C334362
S11316100220002BDFD1C5E763463B430220002BA9
S1131620D9D1C2E79442E7DC05DBBD42E4D806D059
S11316300020BD42CFD20029CBD00120CBE76645A4
S1131640DAD800206645F6D3C5E7C046FF07000098
S1131650F0B5564644465F464D46F0B44F001D1C57
S11316600B03141C1A0B7B0D87B0061C924698467C
S1131670CF0F002B21D1024300D149E15346002B67
S113168000D1E4E1504600F087FA031E272B00DD69
S1131690D8E1083B5146994028228846111A321C49
S11316A0CA4041460A4392469E40D84B0022181A2B
S11316B0002180469146039111E0D54883423ED0F3
S11316C0802153464A031A43D000710F0843D14A7C
S11316D0824600230020F600904499460390291C7A
S11316E0201C251C4A000C03CB0F240B520D9B46D7
S11316F031D1211C014300D112E1002C00D19DE124
S1131700201C00F049FA272800DD91E1031C28225F
S1131710083B291C121A9C40D1400C439D40BB4BF2
S113172059461A1A794000204B46019103430F2B66
S113173026D89900B84B8C46634419688F46111C0F
S1131740314300D0DFE0082600200221B146824662
S113175000260391C3E7AE48824200D1C9E080214C
S11317604B031C43AB49680FE4000443ED005218DB
S11317700020594679404B46019103430F2BD8D999
S113178042443304290404921A0C0F0C101C7843AD
S1131790360C331C80462D0C7B43301C6843111CD3
S11317A069439C4643468346180C081860448445A4
S11317B000D91FE1010C4346039119040B0C0004EA
S11317C0C0182104240C0590101C6243090C0292D9
S11317D04843321C66434A43029BB146060C90467A
S11317E0B4461A1C62444244904502D980267302CE
S11317F09944160CB046C14400044B46060C12042E
S11318000293931956463204100C021C6A439C46F8
S1131810031C7B439146320C574398461B0C9A4653
S1131820D144B94455434F4502D980277E02AD19AE
S11318304B461F0C4646ED191F0433041E0C031CB3
S11318404B436043514354431A0C8018B04640182C
S113185047449A46814202D980214E02A419039B2F
S11318601A1C62445A44624589414E425146B34669
S113187003040E049C460299330C6344CE18B0460C
S1131880C246DA44D219BA42BF4151467B426F186C
S1131890F9189946DA459B415E42029BB346984546
S11318A0B64176425B461E43000C49459B41AF421C
S11318B0AD4136186F4258423843361805983419EA
S11318C056020643CB0D6402701E8641D20D1643A8
S11318D049021C430E43E0012FD50127049D3740E4
S11318E073083E1CE00701351E4304950643640853
S11318F023E0231C2B430320002B00D039E70024D2
S11319000025022035E70C22032391460393E6E6E3
S1131910042600230120B1469A4600260390DEE601
S113192000240025012024E703985446022844D0CB
S1131930032800D1EAE0012860D0049A37495018FE
S1131940002800DC95E00F273740042F05D0311D17
S1131950B142B641754264190E1CE10105D5304807
S1131960049A8023DF000440D0192E49884224DCE5
S1131970019B6507F6086402420501272E43240BE8
S1131980520D1F4000200021090D0D052543264C52
S113199012052C4014436300301C5E08FF07311C01
S11319A0394307B03CBC90469946A246AB46F0BDCD
S11319B05A462E1C01920228BAD1019E01273740B3
S11319C0134A00240026DDE7544601970398ADE747
S11319D001260027154C76420D4AD3E72E1CA5E7B5
S11319E0802213035146194235D10B431D032C0B9E
S11319F0074AC7E780214B029B44DBE6019B002298
S1131A001840C7B200240026BCE7C0460DFCFFFF07
S1131A10FF07000001FCFFFF2C470000FF0300004C
S1131A20FFFFFFFEFE070000FFFF0F80FFFF0F0018
S1131A30041C283CA5402C1C002570E600F0ACF8E2
S1131A40203060E6283B9E40B24600262DE600F09A
S1131A50A3F8203019E61C4206D11C432603340B9C
S1131A605F462E1C2E4A8DE70B431803040B2C4AA9
S1131A7088E72C4F049D7B1B382B06DD019E012734
S1131A8037400022002400267CE71F2B21DC049A27
S1131A90254F351CD119201C8E40DD408840321C56
S1131AA02843561EB241061C1643DC400F23334024
S1131AB0042B05D0371DB742B641714264183E1C51
S1131AC0250217D5019B01271F400122002400266F
S1131AD058E71648049A211C871AF9400D1C202B3C
S1131AE012D0134BD01884402643721E96412E43C5
S1131AF00024DBE7019A6507F60860020127174016
S1131B002E43040B00223DE70024EDE780210F0360
S1131B103C43019824030127240B0740004A31E782
S1131B20FF07000002FCFFFF1E040000E2FBFFFFB2
S1131B303E04000070B5041E26D000F02DF81449B0
S1131B400A1A0A2813DD0B38844056052403720D43
S1131B50250B002600200021301C0E0D33050D4CF2
S1131B602B4311051C400C436500690870BD0B2311
S1131B70051C181A1535211CC440A940520525031B
S1131B800E1C2D0B520DE5E7002200250026E1E78F
S1131B901E040000FFFF0F801C2101231B04984238
S1131BA001D3000C10391B0A984201D3000A0839EA
S1131BB01B09984201D30009043902A2105C4018A1
S1131BC07047C04604030202010101010000000045
S1131BD00000000080B584B000AF78600D4BFB605E
S1131BE0FB687A689A60FB6801221A71002000F091
S1131BF08DF8021CFB681A60FB681B68002B01D17E
S1131C00002303E0044BFA681A64FB68181CBD4601
S1131C1004B080BD04F0FF1F6CF0FF1F80B584B0DA
S1131C2000AF7860054B1B6CFB60FB689B68181C5D
S1131C3000F0C6FCBD4604B080BDC0466CF0FF1F7A
S1131C4080B584B000AF78600D4BFB60FB687A68A8
S1131C509A60FB6801221A71002000F047FA021C06
S1131C60FB681A60FB681B68002B01D1002303E0AA
S1131C70044BFA68DA60FB68181CBD4604B080BDEA
S1131C8010F0FF1F6CF0FF1F80B584B000AF7860C8
S1131C907B68FB60FB681B79002B07D1FB68012282
S1131CA01A71FB681B68181C00F06CFA0023181CDE
S1131CB0BD4604B080BDC04680B584B000AF786036
S1131CC07B68FB60FB681B79002B07D0FB68002254
S1131CD01A71FB681B68181C00F066FA0023181CB4
S1131CE0BD4604B080BDC04680B584B000AF786006
S1131CF0054BDB68FB60FB689B68181C00F07EFDED
S1131D00BD4604B080BDC0466CF0FF1F80B584B0F2
S1131D1000AF7860254BDB6B002B36D1244BFB6086
S1131D20FB687A685A60FB6801221A70214BFA68D2
S1131D301A60214A2049214BCB58012119431F4BDA
S1131D40D1501F4B80221A601D4B1E4A9A601C4BB7
S1131D5004225A601C4A1C49C7239B00CB58FF210C
S1131D608B4380211943C7239B00D150164B164A3D
S1131D701268802149050A431A60114B41221A60F6
S1131D800A4BFA68DA63FB680CE0084BDB6BFB6018
S1131D90FB687A685A60FB681B780133DAB2FB6827
S1131DA01A70FB68181CBD4604B080BD6CF0FF1FA0
S1131DB01CF0FF1F24F0FF1F0070044038100000C7
S1131DC000000440FF3F000000E100E080B582B065
S1131DD000AF084B1B687B60074B074A12688021E1
S1131DE00A431A607B685B68181CFFF717FFBD463F
S1131DF002B080BD24F0FF1F0000044080B584B011
S1131E0000AF7860274BDB6A002B39D1264BFB608F
S1131E10FB687A689A60FB6801221A71234A234995
S1131E20234BCB58802189041943214BD150214B9A
S1131E3000221A601F4B00225A601E4B0022DA60F7
S1131E401C4B00225A611B4B1B4A9A60194B2C22D3
S1131E50DA60184B194A1A61194B194A1168194A60
S1131E600A40C02189000A431A60FB6808221A60EC
S1131E70104B0B221A600B4BFA68DA62FB680CE019
S1131E80084BDB6AFB60FB687A689A60FB681B7925
S1131E900133DAB2FB681A71FB68181CBD4604B042
S1131EA080BDC0466CF0FF1F28F0FF1F0070044087
S1131EB03C10000000900340CCCC00007DBF00002B
S1131EC000A00440FFF8FFFE80B584B000AF786046
S1131ED039600B4B9A683B1C0E331A803B1C0E3343
S1131EE03A1C0E32128801321A803B683A1C0E32B8
S1131EF012881A800023181CBD4604B080BDC04659
S1131F000090034080B582B000AF7860FB1C19706C
S1131F103B1C1A80FB1C1B78002B01D0822313E08E
S1131F20FB1C1B780A4AD35C002B01D009230BE06D
S1131F300849FB1C1B78084AD35C3A1C12880133FD
S1131F40DB00CB189A600023181CBD4602B080BD8C
S1131F5070470000009003406C47000080B584B0D7
S1131F6000AF7860334B5B69002B51D1324BFB607F
S1131F70FB687A685A60FB6801221A702F4A2F495D
S1131F802F4BCB588021490419432D4BD1502D4B55
S1131F9000221A602B4B00225A602A4B0022DA607E
S1131FA0284B00225A61274B0022DA61254B00227C
S1131FB05A62244B0022DA62224B00225A63214BDC
S1131FC0214A9A601F4B2C225A621E4B1F4A9A6266
S1131FD01C4B2C22DA601B4B1C4A1A611C4B1C4AFA
S1131FE011691C4A0A408021C9000A431A61184B2E
S1131FF0174A5168174A0A408021C9000A435A60A7
S1132000104B0B221A600B4BFA685A61FB680CE008
S1132010084B5B69FB60FB687A685A60FB681B7855
S11320200133DAB2FB681A70FB68181CBD4604B0B1
S113203080BDC0466CF0FF1F34F0FF1F00700440E9
S11320403C10000000800340CCCC00009A990000B2
S113205000B00440FFF8FFFE80B584B000AF7860A4
S113206039600B4B9A683B1C0E331A803B1C0E33B1
S11320703A1C0E32128801321A803B683A1C0E3226
S113208012881A800023181CBD4604B080BDC046C7
S11320900080034080B582B000AF7860FB1C1970EB
S11320A03B1C1A80FB1C1B78012B01D9822313E0F3
S11320B0FB1C1B780A4AD35C002B01D009230BE0DC
S11320C00849FB1C1B78084AD35C3A1C128801336C
S11320D0DB00CB189A600023181CBD4602B080BDFB
S11320E078470000008003407447000080B584B046
S11320F000AF78601E4B9B68002B28D11D4BFB6002
S1132100FB687A685A60FB6801221A701A4BFA68F5
S11321101A601A4B00221A60184BD1225A60174BCE
S113212000229A60164A1649D2231B01CB581B027F
S11321301B0A802109061943D2231B01D1500F4BDE
S113214007221A600A4BFA689A60FB680CE0084B95
S11321509B68FB60FB687A685A60FB681B780133F4
S1132160DAB2FB681A70FB68181CBD4604B080BD67
S11321706CF0FF1F3CF0FF1F44F0FF1F10E000E075
S113218000E000E080B582B000AF7860054B054AFE
S1132190126801210A431A600023181CBD4602B0CC
S11321A080BDC04610E000E080B582B000AF78602A
S11321B0054B054A126801218A431A600023181C42
S11321C0BD4602B080BDC04610E000E080B582B0DC
S11321D000AF084B1B687B60074B074A1168074A2E
S11321E00A401A607B685B68181CFFF77DFDBD46DA
S11321F002B080BD44F0FF1F10E000E0FFFFFEFFCF
S113220080B584B000AF78600F4BFB60FB687A68E0
S11322109A60FB6801221A71FB680C4ADA8000207C
S1132220FFF79CFE021CFB681A60FB681B68002B0E
S113223001D1002303E0064BFA681A62FB68181CFC
S1132240BD4604B080BDC04648F0FF1FFFBFFFFF7E
S11322506CF0FF1F80B584B000AF78600A1CBB1C13
S11322601A807B68FB60BB1C1A88164B9A4201D902
S1132270022323E0BB1C1B88181CFEF79BFD031CD8
S1132280181C1149FEF770FA031CBB60B8680F49AB
S1132290FEF786F9031C002B04D0FB68012252428E
S11322A0DA8006E0B868FEF78FF9031C9AB2FB687F
S11322B0DA807B68181C00F00BF80023181CBD465C
S11322C004B080BD204E0000E3B6514000FF7F47BC
S11322D080B586B000AF78607B683B613B691A6863
S11322E03B1C0E33101C191CFFF7B6FE3B1C0E33AF
S11322F01B88002B05D13B1C16333A69D2881A80FF
S113230011E03B1C0E331B883A69D2885A433B1CAC
S11323100E331B88591E80231B020B40D3181A0C42
S11323203B1C16331A803B691A683B1C16331B8806
S1132330101C01211A1CFFF7ADFEBD4606B080BD7E
S113234080B584B000AF78600F4BFB60FB687A689F
S11323509A60FB6801221A71FB680C4ADA8000203B
S1132360FFF74CFD021CFB681A60FB681B68002B1E
S113237001D1002303E0064BFA681A63FB68181CBA
S1132380BD4604B080BDC04654F0FF1F5BEFFFFFA5
S11323906CF0FF1F80B584B000AF78600A1CBB1CD2
S11323A01A807B68FB60BB1C1A88164B9A4201D9C1
S11323B0022323E0BB1C1B88181CFEF7FBFC031C38
S11323C0181C1149FEF7D0F9031CBB60B8680F490B
S11323D0FEF7E6F8031C002B04D0FB6801225242EE
S11323E0DA8006E0B868FEF7EFF8031C9AB2FB68DF
S11323F0DA807B68181C00F00BF80023181CBD461B
S113240004B080BD204E0000E3B6514000FF7F477A
S113241080B586B000AF78607B683B613B691A6821
S11324203B1C0E33101C191CFFF74EFD3B1C0E33D6
S11324301B88002B05D13B1C16333A69D2881A80BD
S113244011E03B1C0E331B883A69D2885A433B1C6B
S11324500E331B88591E80231B020B40D3181A0C01
S11324603B1C16331A803B691A683B1C16331B88C5
S1132470101C00211A1CFFF745FDBD4606B080BDA7
S113248080B584B000AF78600F4BFB60FB687A685E
S11324909A60FB6801221A71FB680C4ADA800020FA
S11324A0FFF75CFD021CFB681A60FB681B68002BCD
S11324B001D1002303E0064BFA689A61FB68181CFB
S11324C0BD4604B080BDC04660F0FF1FFFBFFFFFE4
S11324D06CF0FF1F80B584B000AF78600A1CBB1C91
S11324E01A807B68FB60BB1C1A88164B9A4201D980
S11324F0022323E0BB1C1B88181CFEF75BFC031C97
S1132500181C1149FEF730F9031CBB60B8680F4969
S1132510FEF746F8031C002B04D0FB68012252424C
S1132520DA8006E0B868FEF74FF8031C9AB2FB683D
S1132530DA807B68181C00F00BF80023181CBD46D9
S113254004B080BD204E0000E3B6514000FF7F4739
S113255080B586B000AF78607B683B613B691A68E0
S11325603B1C0E33101C191CFFF776FD3B1C0E336D
S11325701B88002B05D13B1C16333A69D2881A807C
S113258011E03B1C0E331B883A69D2885A433B1C2A
S11325900E331B88591E80231B020B40D3181A0CC0
S11325A03B1C16331A803B691A683B1C16331B8884
S11325B0101C00211A1CFFF76DFDBD4606B080BD3E
S11325C080B582B000AF786001F000F8BD4602B07B
S11325D080BDC04680B500AF00F056FFBD4680BD4B
S11325E080B500AFFFBEBD4680BDC04680B500AF1C
S11325F0304A3149314BD150314A88235B010021A3
S1132600D1502F4A2E492F4BCB58F8218901194319
S11326102C4BD1502A4A2A492A4BCB580121194321
S1132620284BD150264A284B0021D150244A244912
S1132630264BC958264B1940244BD150204B204AD5
S11326401268C02109030A431A601D4A1C491F4B22
S1132650C958204B0B408021490419431B4BD150CE
S11326601D4B06221A701C4B00225A701A4B1A4A30
S1132670D278D1B21F220A40D2B2DA70174B80222C
S11326801A70154B00221A71134B00225A71C0465E
S1132690114B9B79DBB21A1C10231340F8D0C046AF
S11326A00D4B9B79DBB21A1C0C231340F8D1BD46A9
S11326B080BDC04600E000E000000000080D0000FE
S11326C000700440381000004410000004100000A2
S11326D0FFFFFEFFFFFFFFFC0040064000500640E6
S11326E080B500AF3E4B3E4A11693E4A0A40E021A4
S11326F0C9000A431A613C4B3B4A5279D2B21F21AA
S11327008A43D2B25A71384B374A1279D2B207216E
S11327108A43D2B21A71354B344A1278D2B2D2B249
S113272073218A43D2B250210A43D2B2D2B21A7070
S11327302E4B2E4A5278D2B2D2B263218A43D2B2FD
S113274040210A43D2B2D2B25A70284B274A927817
S1132750D2B219218A43D2B29A70254B00221A7040
S11327601F4B1F4A116D1F4A0A40E021C9000A434A
S11327701A65204A1F49C1239B00C9581E4B1940A2
S1132780C1239B00D150002000F008FA002000F083
S1132790BDF90020FFF754FA00F044FB0020FFF7D6
S11327A06FFE002000F06AF90020FFF729FD0020E9
S11327B000F0E8F8002000F097F80020FFF7C0FDD3
S11327C0002000F067F8002000F022F80020FFF756
S11327D001FA002000F01EF962B6BD4680BDC04675
S11327E000900440FFF8FFFE00F0074000D00740CF
S11327F000E0074000E100E0FFFF00FF80B582B089
S113280000AF786000F084FEBD4602B080BDC046D3
S113281080B584B000AF7860114BFB60FB687A68C8
S11328201A60104B0F4A5269802149000A435A61C9
S11328300C4B0C4A11680C4A0A401A600B4B0B4AA9
S1132840116A0B4A0A40802149000A431A62094B63
S1132850FA689A63FB68181CBD4604B080BDC04684
S1132860B4F0FF1F40F00F40FFFEFFFF00A0044044
S1132870FFF8FFFE6CF0FF1F80B582B000AF7860F8
S1132880034B80225200DA60BD4602B080BDC046D0
S113289040F00FF880B584B000AF78600D4BFB605A
S11328A0FB687A681A600C4B0B4A526904218A430C
S11328B05A610A4B094A9168094A0A408021490031
S11328C00A439A60074BFA685A63FB68181CBD46B2
S11328D004B080BDB8F0FF1F00F10F4000D00440E9
S11328E0FFF8FFFE6CF0FF1F80B584B000AF786086
S11328F0114BFB60FB687A681A60104B0F4A5269EF
S1132900802189030A435A610C4B0C4A11680C4A12
S11329100A401A600B4B0B4A516D0B4A0A40802146
S113292049000A435A65094BFA689A62FB68181C05
S1132930BD4604B080BDC046BCF0FF1F00F10F408F
S1132940FFFFDFFF00D00440FFF8FFFE6CF0FF1F25
S113295080B582B000AF78600A1CFB1C1A70FB1CA7
S11329601B78002B04D0064B802292035A6003E0AC
S1132970034B802292039A60BD4602B080BDC046DC
S113298000F10FF880B584B000AF7860104BFB60A5
S1132990FB687A681A600F4B0E4A526904210A4395
S11329A05A610C4B0B4A126804218A431A600A4B81
S11329B0094A9168094A0A40802149000A439A60F9
S11329C0074BFA685A62FB68181CBD4604B080BD08
S11329D0C0F0FF1F80F00F4000B00440FFF8FFFE7E
S11329E06CF0FF1F80B582B000AF78600A1CFB1C3E
S11329F01A70FB1C1B78002B03D0054B04225A6071
S1132A0002E0034B04229A60BD4602B080BDC0467A
S1132A1080F00FF880B584B000AF7860114BFB6094
S1132A20FB687A681A60104B0F4A5269802189004A
S1132A300A435A610C4B0C4A11680C4A0A401A604A
S1132A400B4B0B4A516A0B4A0A40802149000A4346
S1132A505A62094BFA685A64FB68181CBD4604B0F4
S1132A6080BDC046C4F0FF1F40F00F40FFFDFFFFD4
S1132A7000A00440FFF8FFFE6CF0FF1F80B584B097
S1132A8000AF7860104BFB60FB687A681A600F4BEC
S1132A900E4A526908210A435A610C4B0B4A1268C8
S1132AA008218A431A600A4B094AD168094A0A4034
S1132AB0802149000A43DA60074BFA68DA61FB684F
S1132AC0181CBD4604B080BDC8F0FF1F80F00F4045
S1132AD000B00440FFF8FFFE6CF0FF1F80B582B029
S1132AE000AF78600A1CFB1C1A70FB1C1B78002BBF
S1132AF003D0054B08225A6002E0034B08229A6077
S1132B00BD4602B080BDC04680F00FF880B584B0E9
S1132B1000AF7860104BFB60FB687A681A600F4B5B
S1132B200E4A526980210A435A610C4B0B4A1268BF
S1132B3080218A431A600A4B094AD169094A0A402A
S1132B40802149000A43DA61074BFA685A60FB683E
S1132B50181CBD4604B080BDCCF0FF1FC0F00F4070
S1132B6000C00440FFF8FFFE6CF0FF1F80B582B088
S1132B7000AF78600A1CFB1C1A70FB1C1B78002B2E
S1132B8003D0054B80225A6002E0034B80229A60F6
S1132B90BD4602B080BDC046C0F00FF880B584B019
S1132BA000AF7860104BFB60FB687A681A600F4BCB
S1132BB00E4A526902210A435A610C4B0B4A1268AD
S1132BC002218A431A600A4B094A5168094A0A4099
S1132BD0802149000A435A60074BFA681A60FB686F
S1132BE0181CBD4604B080BDD0F0FF1F00F10F409B
S1132BF000D00440FFF8FFFE6CF0FF1F80B582B0E8
S1132C0000AF78600A1CFB1C1A70FB1C1B78002B9D
S1132C1003D0054B02225A6002E0034B02229A6061
S1132C20BD4602B080BDC04600F10FF880B500AFCC
S1132C30144B1B78002B1DD0134B1B68181C00F081
S1132C4075F9124B1B78DBB2002B18D0104B002205
S1132C501A70104B00221A700B4B1A680D4B101C83
S1132C60191C012200F0C8F9074B1B68181C00F05E
S1132C7081F904E0044B1B68181C00F063F9BD469D
S1132C8080BDC046D4F0FF1F18F1FF1FD5F0FF1F11
S1132C90DCF0FF1FD8F0FF1F80B500AF074B1B7897
S1132CA0002B01D0002305E0044B01221A70FFF72A
S1132CB0BDFF0023181CBD4680BDC046D4F0FF1FD5
S1132CC080B500AF074B1B78002B01D1002305E032
S1132CD0044B00221A70FFF7A9FF0023181CBD46FD
S1132CE080BDC046D4F0FF1F80B500AF0A4B1B78EF
S1132CF0002B01D107230CE0084B1B78DBB2002B1F
S1132D0001D0082305E0054B02221A70FFF78EFF5D
S1132D100023181CBD4680BDD4F0FF1FD5F0FF1F53
S1132D2080B500AF094B1B78DBB2022B01D008231E
S1132D3008E0064B00221A70054B1B68181C00F0B3
S1132D4041F90023181CBD4680BDC046D5F0FF1FC5
S1132D5018F1FF1F80B582B000AF7860084B1B7874
S1132D60DBB2002B01D1092305E0064B1B889AB284
S1132D707B681A800023181CBD4602B080BDC04683
S1132D80DCF0FF1F14F1FF1F80B582B000AF786044
S1132D901F4B1B78DBB2002B35D01D4B1B78DBB2ED
S1132DA0042B0AD11B4B1B68181C00F095F9184B17
S1132DB000221A7000F0A8FB26E0164B1A68164B86
S1132DC0101C191C00F052F9144B01221A7000F067
S1132DD05FFB0F4B1B78DBB2012B03D10C4B0022A2
S1132DE01A7011E00E4B00221A700A4B1A680C4B31
S1132DF0101C191C012200F0FFF8064B1B68181C5C
S1132E0000F0B8F800E0C046BD4602B080BDC04640
S1132E10D5F0FF1F18F1FF1F14F1FF1FDCF0FF1F97
S1132E20D8F0FF1F80B500AF084B01221A70084B81
S1132E3000221A70074B00221A70002000F00EF8CE
S1132E40021C054B1A60BD4680BDC046D4F0FF1F6E
S1132E50DCF0FF1FD5F0FF1F18F1FF1F80B584B011
S1132E6000AF7860284BFB60FB687A685A60274B98
S1132E70FA681A60FB6800221A70FB6801225A7013
S1132E80FB680022DA70224A2149224BCB58802168
S1132E90090519431F4BD1501F4A1F49C3239B00E7
S1132EA0CB581B021B0A802109061943C3239B002C
S1132EB0D150194B184A1268802109020A431A603A
S1132EC0164B164A5169164A0A405A61154B154A5F
S1132ED0D26810210A43DA60124B6C229A60114BBB
S1132EE0104AD2680F218A43DA600E4B00221A621C
S1132EF00C4B40225A620C4BFA681A61FB68181C8E
S1132F00BD4604B080BDC046E0F0FF1FE8F0FF1FDF
S1132F10007004403C10000000E100E000C00440E8
S1132F20FFF8FFFE00B003406CF0FF1F80B582B0D5
S1132F3000AF78607B6801225A700023181CBD46DC
S1132F4002B080BD80B582B000AF78607B6800229B
S1132F505A70074B064A126A40218A431A62044B8C
S1132F601F221A600023181CBD4602B080BDC04653
S1132F7000B0034080B582B000AF78607B685B78B6
S1132F80002B01D1072317E00D4B1A6A802313404D
S1132F9001D0082310E00A4B094A526A08218A43E7
S1132FA05A62074B064A126A40218A431A62044B4A
S1132FB07A6892781A600023181CBD4602B080BD5E
S1132FC000B0034080B582B000AF78607B685B7866
S1132FD0002B01D1072309E0064B064A126A40215F
S1132FE08A431A62034B1F221A600023181CBD4631
S1132FF002B080BD00B0034080B586B000AFF86079
S1133000B960FB1D1A70FB687B61FB685B78002B61
S113301001D1072321E0FB1D1B78012B03D8FB1DE5
S11330201B78002B01D1962317E00E4B1A6A8023DC
S1133030134001D0082310E07B69FA1D12781A703E
S1133040BB681B78002B01D0822306E0BB681B7889
S1133050054AD25C7B699A700023181CBD4606B0F1
S113306080BDC04600B003407C47000080B584B0FA
S113307000AF786039603B68BB607B685B78002B8D
S113308001D1072322E03B1C0F3300221A7015E004
S11330903B1C0F331B785B00BA68D3180D4A391CEC
S11330A00F310978043189008A5892B21A803B1C86
S11330B00F333A1C0F32127801321A707B681B7876
S11330C03A1C0F3212789A42E2D30023181CBD46F0
S11330D004B080BD00B0034080B584B000AF786018
S11330E02A4B5A6A4023134001D01B234AE0274B42
S11330F0DB6CFB60254B9B6CFA68D318FB60234B9D
S11331005B6CFA68D318FB60204B1B6CFA68D3180D
S1133110FB601E4BDB6BFA68D318FB601B4B9B6B8D
S1133120FA68D318FB60FB685B0880221202134321
S1133130FB60164BFA68DA62144BDB6EFB60134BD0
S11331409B6EFA68D318FB60104B5B6EFA68D31859
S1133150FB600E4B1B6EFA68D318FB600B4BDB6DE8
S1133160FA68D318FB60094B9B6DFA68D318FB60AF
S1133170FB685B08802212021343FB60034BFA686E
S11331801A630023181CBD4604B080BD00B0034080
S113319080B582B000AF084B1B687B607B6801225E
S11331A0DA707B685B68181CFFF7EEFD034B1B6944
S11331B0BD4602B080BDC046E8F0FF1F00B003402A
S11331C080B500AF054A064BD31A054A101C0021EE
S11331D01A1C00F023FABD4680BDC04690F4FF1FC0
S11331E004F0FF1F01F052FAFFF700FAFFF7E8FFBF
S11331F001F024FA01F0C0F901F056FA044B002062
S1133200191C00F00DF8031C181C00F0EBF9C04663
S1133210ECF0FF1F80B582B000AF7860FEE7C046D7
S1133220F0B583B000AFFFF75BFAFFF75DFD864BA7
S11332309B6A181C0121FFF78BFB834B9A69834B14
S1133240101C191CFFF746F97F4B1A6A7F4B101CA0
S1133250191CFEF7FFFF7C4BDB69181C0021FFF7EC
S11332603DFC794B5B6A181C0021FFF7BBFB00E0B7
S1133270C046774B1B78012BFAD1754B00221A708C
S113328012237B6042E0734B1A68734B1B68D31A9A
S1133290181CFEF74FFC031C0C1C684966481A1CDA
S11332A0231CFDF7DBFD031C0C1C1D1C261C6B4B97
S11332B07A689200D258684B1B68D31A181CFEF720
S11332C039FC031C0C1C281C311C1A1C231CFEF783
S11332D0BFF9031C0C1C181C211C594A594BFDF73F
S11332E01BF9031C002B07D07B681A1C123A5C4B99
S11332F092000021D15006E07B681A1C123A584B08
S113330092000121D1507B6801337B607B686D2B77
S1133310B9DD00237B601BE0514B7A689200D358DF
S1133320002B12D17B685A1C4D4B9200D358002BB2
S11333300BD17B689A1C4A4B9200D358002B04D1C2
S11333407B689AB2474B1A8005E07B6801337B6047
S11333507B68592BE0DD434B1B881BB20F2B15DC1C
S1133360394B1A6B404B101C191CFFF713F8364BE2
S11333709A69364B101C191CFFF7ACF8324B1A6AC9
S11333803A4B101C191CFEF765FF42E0354B1B88B5
S11333901BB21E2B07DC2C4B1A6B354B101C191C53
S11333A0FEF7F8FF35E02F4B1B881BB24B2B15DDC6
S11333B0254B1A6B2F4B101C191CFEF7EBFF224BED
S11333C09A692A4B101C191CFFF784F81E4B1A6AC1
S11333D01E4B101C191CFEF73DFF1AE0214B1B88E5
S11333E01BB23D2B07DD184B1A6B234B101C191C09
S11333F0FEF7D0FF0DE0144B9A69204B101C191CEA
S1133400FFF768F8104B1A6A1C4B101C191CFEF7C6
S113341021FF104B00221A600F4B194A1A60FFF764
S11334203BFCFFF761FC084BDB68181CFEF72CFC27
S11334301EE7C046C046C046000000000000104021
S1133440000000000000F03F6CF0FF1FB0360000E9
S1133450F2F0FF1FF4F0FF1F00F0FF1F8CF2FF1FBC
S11334601CF1FF1FF8F0FF1F384A0000504600000F
S113347012490000E0470000064900001027000040
S1133480FFFF0000C046C04680B500AFBD4680BD0A
S113349080B500AF164B1B78802B27D8154B181C12
S11334A0FFF758FC144B1B781A1C124B1968134B6A
S11334B09200D1500F4B1A68114B1B689A4207D9DE
S11334C00C4B1B68002B03D00A4B1A680C4B1A6078
S11334D0084B1A680B4B1B689A4207D2054B1B68B2
S11334E0002B03D0034B1A68064B1A60BD4680BDFF
S11334F0F0F0FF1F8CF4FF1FF1F0FF1F8CF2FF1F91
S1133500F4F0FF1F00F0FF1F80B500AFBD4680BD83
S113351080B500AF294B1B78802B1CD8284B1B7817
S1133520012B0FD1254B1B78012B05D8254B5B684C
S1133530181C0021FFF71AFB204B1B780133DAB269
S11335401E4B1A701E4B1B785A425341DBB21A1C95
S11335501B4B1A7019E01A4B00221A70174B0022E9
S11335601A70184B1A68164B1B78101C191CFFF79D
S113357045FB144BDB68181CFEF79EFBFFF7D0FBE2
S1133580FFF79EFB104B01221A700C4B1B78002B8B
S113359009D10B4B1B78002B05D10A4B5B68181C17
S11335A00121FFF7E3FA074B1A68054B1B78101C3F
S11335B0191CFFF723FBBD4680BDC046F1F0FF1F79
S11335C0F0F0FF1F6CF0FF1FF2F0FF1F80B500AF9B
S11335D0034B9B6B181CFFF74FF9BD4680BDC046DB
S11335E06CF0FF1F38B5051C01F042F800F0E8FF4D
S11335F0084C2368002B02D0984700202060064C1A
S11336002168002902D0884700222260281CFFF785
S113361001FE38BDFCF0FF1F00F1FF1F10B5041CB4
S113362000F03EFF201C10BDF0B589B001901F1CB6
S11336300EAB0391079202901A78081C01990FAC03
S113364001380026049225780670B14217D1119BE7
S1133650B34214D1049B002B01D06F2D2FD0642DC5
S113366002D0692D00D0A8E0022F02D103980238BD
S11336709FE0012F00D0A0E00398023894E0692D68
S11336800ED004D8582D16D0642D1CD108E0752D09
S113369004D0782D0FD06F2D15D110E0002712E043
S11336A0019A002A0FDA80242606B2420DD0514234
S11336B00191029109E000273E1C102407E0002735
S11336C03E1C082403E0002600E001260A240090A2
S11336D0002006900298211CFCF7F2FE0298059146
S11336E0211CFCF7A9FE059A0290092A01D8303260
S11336F005E0059A3732782D01D1059A57320098A2
S1133700069B02990138D2B200900270013300295D
S113371001D00693DEE7011C082C0BD10498002885
S113372008D0302A06D00B1C013B302200931A70BB
S1133730069B0233079802280FD1002E01D1002FD7
S113374002D0109901391091109A1192102C04D1C1
S11337500498002801D0023A119203990098119A12
S1133760091A8918164A914226DC0099CA18119937
S1133770121A8A4203DA013830220270F5E7102C5B
S11337800AD1049C002C07D0019B002B04D0421EBC
S11337903021023815700170002E02D001382D211D
S11337A008E0012F02D101382B2103E0022F04D1BC
S11337B001382021017000E0002009B0F0BDC046AE
S11337C0FD010000F0B5B64C1E1CA5446B460A90E2
S11337D00B913E3320210020197008920590089A1D
S11337E01578002D00D1F9E10898252100F0ADFEEF
S11337F00C90002811D1089800F0B6FE0599021C1F
S113380008180590002A00D1E8E10B9808990A9E4F
S1133810B047002800D0E1E1CEE00C9F089C059958
S11338203A1B8B180593002A0CD10C980C9A4378F8
S113383001321D1E252D0CD000270121BC460D97F9
S1133840069119E00B9808990A9DA8470028ECD125
S1133850B2E00C9A002102320124089207910694E6
S11338603DE02B2B0BDC202B10D0232B00D0BAE017
S113387001239C46013213782B2BF2D1ABE12D2B83
S113388000D1A5E1302B00D0ADE004E00D9D012D69
S1133890F0D00220A0E1069C002CEBD00220069080
S11338A0E8E737680436FB43D80F937802321C1CD0
S11338B0683C0021042C00D8C1E0DDB26E2B00D09E
S11338C0C7E0013208926E2D00D149E100D900E130
S11338D0632D00D159E107D8252D00D0F3E010ACB9
S11338E025700996012619E0642D00D0EEE0321D02
S11338F009923068032900D0F6E0079966460096DD
S113390001950291039790A9069A0D9BFFF78CFEEF
S1133910041E00D13FE1634F6F443E1A069800280D
S11339203CD02023022800D130236F463E373B7021
S113393022782B2A04D02D2A02D0371C202A0BD11E
S1133940371C302B08D10B98211C01220A9B984765
S1133950002831D00134771E069902290ED1612D39
S113396001D0412D0AD1012F26DD0B98211C022202
S11339700A9DA84700281FD0023F0234351C079E29
S1133980B54209DA69460B983E3101220A9B9847F1
S1133990002811D00135F2E73E1C00E0351C002E52
S11339A003D10698002819D115E0211C0B98321C6C
S11339B00A9CA0470028F4D10122554205950DE147
S11339C069463F3120240B9801220A9F0C70B847A6
S11339D00028F1D00135079FBD42F1DB059A531948
S11339E00593099EFBE6171C2A2B00D0E1E0341D49
S11339F036680796002E03DA73420025079306956E
S1133A007B780132261C284F0798B84200DDC2E0BB
S1133A102E2B11D153782A2B00D142E701320027F3
S1133A201C1C303C092C05D80A214F4301323F1994
S1133A301378F5E701203AE70027381C37E71B4DD8
S1133A40295D1B4D2C57002C00D136E753780132E9
S1133A5033E76E2B0ADC632B2CD002DC582B30D1DD
S1133A6015E0642B13D0692B2BD110E0732B23D0DA
S1133A7009DC6F2B0BD0702B23D101237825082769
S1133A8003219C461DE7752B01D0782B19D1002802
S1133A9015D0069C022C00D013E70123069310E7EF
S1133AA0BCFDFFFF3F020000FD010000864700004F
S1133AB081470000002804D1002902D101E7012731
S1133AC0FFE6FF25FDE6582D65D116E0692D62D18C
S1133AD00DE7732D23D002D86F2D5CD10DE0752D29
S1133AE00BD0782D57D108E0022901D100B204E7A8
S1133AF0012900D001E740B2FFE6341D0994306883
S1133B00032906D0022901D180B202E0012900D1A3
S1133B10C0B2079E6246009201950296F2E63468AE
S1133B20311D0991002C00D12F4C6346002B07D086
S1133B3026780134002800D1F0E6BE4237DCEDE6F9
S1133B40002808D0201C61463A1C00F0E8FC00283C
S1133B502DD0061BE2E6201C00F006FD061CDDE667
S1133B60351D09953468022907D003290AD0002994
S1133B7000D036E70598206033E76F461421CB5B0D
S1133B8023802EE7059A22602BE73368301D10ACA2
S1133B9009902370A6E60C9800F0E6FC059E021C32
S1133BA035180595002819D00B980C992FE63E1C62
S1133BB0B4E600240794191C3039092900D922E7F6
S1133BC0079D0A236B430132581807901378F2E7D4
S1133BD0002706974EE601200D904BE605989124A8
S1133BE0A400A544F0BDC04680470000F0B50027FE
S1133BF0A9B0059006910F9309920D970B9708971A
S1133C000A970C970497099D2C78002C00D103E3A4
S1133C10201C00F047FB002822D0099A01321078BA
S1133C20099200F03FFB0028F7D1002F00D0F1E209
S1133C30002106980A1C059CA047061C00F032FBD4
S1133C40002803D0049B01330493F1E7701C04D1D2
S1133C502E98002800D1DFE201270698311CABE240
S1133C60252C1BD0002F19D1391C06983A1C059E0F
S1133C70B047C1B2A1420AD006980122B0472E9F94
S1133C80002F00D1C8E2099D01350995C2E2049BC9
S1133C9009990133013104930991B4E71EAC201C46
S1133CA000212822FFF7BAFC0998A54E45786660E2
S1133CB0281E25280CD1211C14A82822E57000F008
S1133CC03BFC099C00200234099407900E90D7E035
S1133CD02A2D02D0099C013405E00123099923709F
S1133CE0099C88780234021C303A092A1FD800261D
S1133CF00A256E433038013436182078031C303BD3
S1133D00092BF5D91EAD6E60002E0ED10123594248
S1133D10E97014A8291C2822013400F00DFC2B782A
S1133D200994FF2507960E969DE001266E701EA944
S1133D30682804D06C280CD10320887007E06378CD
S1133D4002228A70682B02D101258D706419607873
S1133D5001341EABD8705838202871D8FCF762FBA8
S1133D607270702B707070707070701572707070EB
S1133D7070727070707072721170701970727070ED
S1133D80720003269E7078215BE09A78002A59D04D
S1133D9056E09978002901D0FF20D87000231EAA8C
S1133DA0D518FF2601332E72202BF8D1C121FE2015
S1133DB05172107346E09D78002D01D0FF26DE700D
S1133DC063785E2B02D00134002102E0A378012144
S1133DD002345D2B07D11EAB2020D87463780134E4
S1133DE001E0E3780334002B00D139E25D2B00D1EC
S1133DF039E2DDB2EA081EAE0720B21818400125E8
S1133E008540107A2E1C6578064316722D2D14D128
S1133E10A278002A11D05D2A0FD001339342E0DC4E
S1133E20DEB2F0081EAD281807251D400126AE405D
S1133E30351C067A35430572EFE701342B1CD2E7B3
S1133E40FF21D9701EAE311C282214A800F074FB87
S1133E506A467A327178107833780E910790F57843
S1133E60013476680994002B06D1252D08D00F9AC9
S1133E70146804320F9200E000246E2D01D1ADE1EC
S1133E800024002F01D001270AE00698391C0222E1
S1133E90059B9847002803D02E9F002FF3D1BBE148
S1133EA0692D25D012D85B2D00D115E106D8252D1A
S1133EB000D1D3E0582D00D0AEE13EE0632D00D117
S1133EC07CE0642D00D0A7E10A2012E0732D00D11C
S1133ED0E6E007D86E2D00D180E16F2D00D09BE184
S1133EE0082030E0752D2DD0782D00D094E124E009
S1133EF00020002F48D112A913AA11AD01910292FA
S1133F00311C0095059A069B00F0E3F9119E002EE2
S1133F1005D12E98002828D101240B947CE1049B20
S1133F20129D9E190496002D05D080210A06904208
S1133F3001D043422AE0031C28E0102003E0C046DD
S1133F40FFFFFF7F0A20002F1ED111AB13A912AD72
S1133F5000930291069B311C0195059A00F0B9F972
S1133F60119E031C002E03D1D3E70127331C0DE05F
S1133F70049A129D90190490002D07D080210E06FA
S1133F80B34203D05B4201E001270023002C11D08F
S1133F90079E032E09D8301CFCF744FA06020406D7
S1133FA0237002E0238000E023600C9D7942794174
S1133FB06A180C920A9801300A906EE00E98002854
S1133FC000D10126002C33D000211191A6198F4273
S1133FD000D01FE1B44219D02E9A002A04D01198BF
S1133FE0002811DA01230D93002106980A1C059D6F
S1133FF0A8470890013009D008AB1D7825701199A5
S1134000013401311191E5E700240D94119E2E9A9B
S1134010002E00D1A0E0002A03D00D99002900D180
S1134020F8E0049A0C9C9019013404900C94D1E0AB
S11340301194013E701C0CD0002106980A1C059BAB
S11340409847013E0890013003D0119D0135119528
S1134050F0E7119E002E00D0BCE0DDE0002F00D080
S1134060D5E0002106980A1C059EB047051C00F007
S113407019F9002803D0049C01340494F1E7252D98
S113408008D001220698291CB0472E9A002A00D194
S113409042E7BCE004990131049101240B94B2E598
S11340A001230B93002F17D10698391C3A1C059D48
S11340B0A847051C00F0F6F8002806D0049B002150
S11340C00133049306980A1CF1E701220698291C7F
S11340D0059B984701220B92002C49D00021119195
S11340E08F4200D096E0013E351C711C24D02E9ADC
S11340F0002A04D0119B002B1CDC01200D90002110
S113410006980A1C059B98470890013014D008A90A
S11341100B7814A8DA088218089807210140127A4B
S113412001208840104207D02370119D01340135CD
S11341301195D8E700260D96119B08AE3178002B17
S113414005D02E9800280AD00D9A002A07D1012202
S11341500698059FB8472E9A002A5DD05AE00020A1
S1134160049E20700C9CF318013404930C942BE0EF
S11341701194013E351C711C19D0002106980A1CAB
S1134180059CA0470890013011D008A8017814AA12
S1134190CB080898D418072303400121247A9940B6
S11341A0013E214203D0119D01351195E2E7119E94
S11341B0002E05D1069808990122059B984722E50F
S11341C0049B089998190490002D03DB069801229A
S11341D0059DA8470A9901310A9114E5002C00D1E4
S11341E011E5079A032A00D90DE5101CFCF71AF90A
S11341F0070A02076D4610214A5B228003E50498F2
S1134200206000E568461026335C2370FBE4012738
S11342100B97F8E40127F6E4002106980222059D95
S1134220A8470A99002805D0002928D10126704200
S11342300C9024E0002922D10B9A002A1FD00A995D
S113424006980A1C059FB8470A99041C022206987E
S1134250B8470028EAD10698211C0122B8470EE08D
S1134260FF211EABEDE5002900D1EBE520AD2A7856
S113427028A8D6432E7001358542F8D1E2E50C9882
S113428029B0F0BD8022031C00B5002051008B42F0
S113429004D803480122C3185878104000BDC04612
S11342A08B4700008022031C00B5002051008B4284
S11342B004D803481022C3185878104000BDC046E3
S11342C08B470000031C613B00B5192B00D8203834
S11342D000BDF0B587B0059101930D990E9B009236
S11342E000220A60071C1A60904216DB012814D0D1
S11342F0242812DC0598904207DD009C0198111CCB
S1134300A0470126041C351C02E0141C161C402581
S113431000220392974209D002E0141C161C402587
S113432001214842391CFCF787F8039000230293CB
S113433004930598864200DD9EE0621C00D19BE058
S11343406022154200D097E0681E0F28F1D8FCF7D0
S11343505FF8082EF03FF0F0F052F0F0F0F0F0F0DB
S1134360F052201CFFF79EFF021E09D00021009C82
S113437001980A1CA047041C049801300490D8E753
S11343802B2C07D1009D0198111CA8470136041C51
S11343900225CEE702252D2CCBD1111C0198009BC0
S11343A098470D9901220136041C0A60C1E7002FC9
S11343B002D00825102FBCD10825302CB9D10021FA
S11343C0009C01980A1CA0470136041C0425B0E790
S11343D0582C01D0782C09D1002101980A1C009B8B
S11343E098470136041C08251027A2E71025002F42
S11343F09FD108279DE7002F00D10A2703980028A2
S113440005D101225042391CFCF716F80390201CF8
S11344103038092802D8B84211DB0BE0201CFFF722
S113442031FF002806D0201CFFF74CFF011C363951
S1134430B94203DD102D1DD120257AE73738029DBE
S1134440039C0123A54201D80E9B1B68029AC5B2A6
S11344507A43D1438D4200D901230E9C8018002158
S113446023600290009D01980A1CA8470136041C91
S113447010255EE740255CE734273D4003D10C9BC3
S113448002951D6004E0049D013E0C9976190E60AE
S1134490211C01980122009CA047029807B0F0BD9E
S11344A030B5C9B2031C1F2A31D944420323234027
S11344B005D0D21AC51801700130A842FBD10029D9
S11344C005D00D060C042C430B0221431943540957
S11344D0031C002C0ED0251C013D19605960996005
S11344E0D960196159619961D9612033002DF3D1E3
S11344F06301C318D006400F07D0041C1D1C013CE7
S113450002C5002CFBD180001B18032422409D18F7
S1134510002A03D019700133AB42FBD130BD00B582
S1134520C9B28218904205D0037801308B42F9D188
S1134530013800E0002000BD10B50023934203D0F1
S1134540CC5CC4540133F9E710BD00B5C9B203789B
S1134550421C002B03D08B4205D0101CF7E74B42C2
S113456059414942084000BD00B5431E01331A7841
S1134570002AFBD1181A00BD10B50B4C0B4B9C4202
S113458002D001CC8047F9E7094C0A48844202D0A2
S113459008CC9847F9E7084C08498C4202D004CC6F
S11345A09047F9E710BDC0468C4800008C480000D5
S11345B08C4800008C4800008C4800008C480000A7
S11345C010B5084C084B9C4202D004CC9047F9E744
S11345D0064C0748844203D0043C21688847F8E726
S11345E010BDC0468C4800008C4800008C48000078
S11345F08C48000000B588421FD0002A1DD0032338
S1134600194207D1184205D19A4203D908C9043A7C
S113461008C0F2E70123194209D1184207D19A428E
S113462005D90B88023A038002310230E5E70B78A2
S1134630013A037001310130DFE700BD38B50B4D9D
S1134640002D11D000242B191968002906D02B192C
S113465058689A68FFF7CEFF0C34F4E75A68002ACA
S1134660F5D198680028F2D138BDC04690480000C2
S1134670054B10B51C68002C04D0A06861688847FD
S11346802468F8E710BDC04610F1FF1F054B181C45
S1134690002805D0854681B00020C043009001B0B9
S11346A0F746704700300020F7467047CC070000FB
S11346B00E0900000E09000006090000F4080000BD
S11346C0F4080000EC08000006090000F4080000EB
S11346D0EC080000F4080000060900009808000037
S11346E0980800009808000012090000700F0000EC
S11346F03C11000030120000CC1100003012000008
S1134700A611000030120000CC1100003C11000082
S11347103C110000A6110000CC1100005212000050
S113472052120000521200003812000080170000DC
S1134730DC190000DC190000B01900002819000081
S113474028190000D0190000B01900002819000031
S1134750D019000028190000B0190000C819000081
S1134760C8190000C8190000E0190000000000008A
S113477000000000030000000000000046000000EC
S1134780000100000001020000000300808080801E
S113479080808080809090909090808080808080C5
S11347A080808080808080808080808018040404E1
S11347B004040404040404040404040402020202BD
S11347C002020202020204040404040404434343F4
S11347D043434341414141414141414141414141BF
S11347E0414141414141410404040404042323237D
S11347F0232323212121212121212121212121219F
S1134800212121212121210404040480000000002D
S11348100000000000000000000000000000000094
S11348200000000000000000000000000000000084
S11348300000000000000000000000000000000074
S11348400000000000000000000000000000000064
S11348500000000000000000000000000000000054
S11348600000000000000000000000000000000044
S11348700000000000000000000000000000000034
S10F488000000000000000000000000028
S107488CFFFF000026
S11348908C48000000F0FF1F04000000000000002E
S10B48A000000000000000000C
S90331E5E6
