S01C0000436564726F6E6963734C696E65466F6C6C6F7765722E68657804
S11300000030002069410000413500004D350000FA
S11300104D3500004D3500004D3500004D350000D4
S11300204D3500004D3500004D3500004D350000C4
S11300304D3500004D3500004D35000039310000CC
S11300404D3500004D3500004D3500004D350000A4
S11300504D3500004D3500004D3500004D35000094
S11300604D3500004D3500004D3500004D35000084
S11300704D3500004D3500004D35000015410000A0
S11300804D3500004D3500004D3500004D35000064
S11300904D3500004D3500004D3500004D35000054
S11300A04D3500004D3500004D3500004D35000044
S11300B0392D00004D3500004D3500004D35000050
S1130400FFFFFFFFFFFFFFFFFFFFFFFF7EFFFFFF79
S113041002B4714649084900095649008E4402BC99
S11304207047C04602B4714649084900095C490056
S11304308E4402BC7047C046002934D001230022F8
S113044010B488422CD301242407A14204D281424F
S113045002D209011B01F8E7E400A14204D281425F
S113046002D249005B00F8E7884201D3401A1A43DC
S11304704C08A04202D3001B5C0822438C08A04213
S113048002D3001B9C082243CC08A04202D3001BC9
S1130490DC082243002803D01B0901D00909E3E743
S11304A0101C10BC7047002801D00020C04307B4C2
S11304B0024802A14018029003BDC0461900000082
S11304C00029F0D003B5FFF7B9FF0EBC4243891AE7
S11304D01847C0467047C0468446101C62468C4686
S11304E0191C634600E0C0461FB501F011FC00284A
S11304F001D40021C8421FBD10B501F057FB404292
S1130500013010BD10B501F003FC002801DB002010
S113051010BD012010BDC04610B501F0F9FB002844
S113052001DD002010BD012010BDC04610B501F052
S11305307BFB002801DC002010BD012010BDC0465B
S113054010B501F071FB002801DA002010BD012074
S113055010BDC0468446081C6146FFE71FB500F085
S1130560DBF8002801D40021C8421FBD10B500F0FB
S113057063F84042013010BD10B500F0CDF80028FA
S113058001DB002010BD012010BDC04610B500F0F5
S1130590C3F8002801DD002010BD012010BDC046B5
S11305A010B500F071F8002801DC002010BD012016
S11305B010BDC04610B500F067F8002801DA00202D
S11305C010BD012010BDC0469E2110B5C905041CF4
S11305D0FFF7F0FF002803D1201C00F0EBFB10BD57
S11305E09E22201CD10500F00FFA00F0E3FB8023CB
S11305F01C060019F3E7C04638B50E4B0C4A041C20
S11306000D1CFFF79DFF002804D1201C291C02F0BB
S1130610D9F938BD074B064A201C291C01F056FEA7
S113062002F0D0F9802319064018F2E7C046C0460C
S1130630000000000000E0414302420070B55C0A83
S1130640C60F130E48024A00450A120EC90FFF2BAB
S113065005D0FF2A08D0012093420BD070BD0120A1
S1130660002CFBD1FF2AF6D10120002DF6D1012068
S11306709342F3D1AC42F1D18E4203D0002BEDD1A1
S1130680002CEBD10020E9E7F0B5430242004F0013
S1130690C60F48025C0A450A130EC90F3A0EFF2B17
S11306A026D0FF2A29D0002B0CD160426041844619
S11306B0002A0AD0002816D18E4221D0002E14D14F
S11306C0012014E0002AF7D194466F426F4160463E
S11306D0002805D1002FEFD00120002E07D004E020
S11306E00020002F03D10029EAD101214842F0BDA6
S11306F0002CD6D002225042F9E7002DD3D0F9E7DE
S11307009342DBDC04DBAC42D8D80020AC42EED20E
S1130710002EEAD00120EAE7F0B5430242004F0080
S1130720C60F48025C0A450A130EC90F3A0EFF2B86
S113073026D0FF2A28D0002B0FD0002A14D19446AB
S11307406F426F416046002814D00020002F03D16F
S113075000290DD101214842F0BD60426041844628
S1130760002AEDD00028F3D18E4211D0002EF1D111
S11307700120F1E7002FF7D00120002EECD0E9E7AB
S11307800220002CE8D1D4E70220002DE4D1D2E7E6
S11307909342EBDC04DBAC42E8D80020AC42DBD271
S11307A0002ED7D00120D7E7F0B55F4656464D4618
S11307B04446F0B44502460083B00F1C6D0A360E61
S11307C0C40F002E06D1002D70D1042101228846C9
S11307D0924609E0FF2E43D08023180400210543EC
S11307E0ED007F3E88468A46381C43007F02C10FD5
S11307F07F0A1B0E8B463AD10121002F62D1584645
S11308006040424601900A430F2A3FD92C04F01855
S1130810260C3B041A0C311C51433F0C2D0C7E4317
S11308206A438146080C36182C1CB3187C439A4240
S113083000D99AE009041D04080C2E18B5011B0CFC
S1130840691E8D41B20EE7181543BC0125432B01E7
S11308504BD50120284001216D088944054344E01B
S1130860002D1ED10820022180468A46BCE7FF2BBA
S113087012D08022100407435846002160404246AB
S1130880FF007F3B01900A430F2ABFD890005B4AC8
S11308908446624410688746391C4A1E91410231DD
S11308A0ADE70C22032390469A469DE7281C02F0EC
S11308B029F97622461F5342B5401E1A002080466D
S11308C0824691E7381C02F01DF97621431F4A4203
S11308D09F400021131A92E70194514602292CD01B
S11308E0032900D180E0012948D04E467F36002EEE
S11308F051DD0F242C40042C00D004352A0103D5EB
S11309003F494E460D408036FE2E3DDD019B0124BD
S11309101C40FF210025C805E2072843104303B00B
S11309203CBC90469946A246AB46F0BD0024354DEA
S1130930FF21F0E751460229D2D1019D01242C4028
S1130940FF210025E7E75E463D1C0196C6E73D1CF6
S1130950C4E78026F3031D420BD01F4209D11F4375
S11309607A02550A5C46FF21D5E780225702E41932
S113097060E71D436F027D0AFF21CCE7019B002540
S11309801940CCB20021C6E70198AD0101246D0ADB
S1130990F1B20440BFE77E2673424A469F1A1B2FDA
S11309A005DD019D01242C4000210025B3E74946C3
S11309B09E312C1C8D402E1CFC40751EAE412643DE
S11309C00F203040042800D00436700105D5019F63
S11309D001243C40012100259DE7019AB301012433
S11309E05D0A1440002196E78022D00305436C027F
S11309F00199650A01240C40FF218CE78856000008
S1130A00FFFFFFF7FFFF7F00F8B5430245004F02E9
S1130A104C00C20F980984462D0E200EC90FBF0941
S1130A20FF2851D0012671408A4238D02C1A002C5C
S1130A3000DC86E0002822D1002F48D16E1C2C1C3B
S1130A406346151C0F221A40042A00D004330122E5
S1130A502A40580106D5FF2E00D181E0B04D341C48
S1130A602B400136F6B2DD08012E62DD6802450A2C
S1130A70E4B2E4052543281CD2071043F8BDFF2D3A
S1130A8051D08021CB041F4301261B2C70DD674607
S1130A902C1CBB1B151C580122D4661CD2E72E1A31
S1130AA0002E76DD002832D0FF2D3CD08024E104D6
S1130AB00F4301231B2E00DCD1E063442C1C58019E
S1130AC07AD4661C151CBDE7002FADD1AAE7013C02
S1130AD0002C6DD163462C1CDB1B151C5801DCD586
S1130AE09A019609301C02F00DF8053886408442BC
S1130AF039DC001B1F231A1A331C311C441C93407D
S1130B00E1405E1EB3410B43012600249AE7002F07
S1130B1000D193E7013E002E03D164463B192C1CFF
S1130B20CDE7FF2DC5D1151C802263465600FF2456
S1130B3088E7002D9CD0002C28D08027F9030D4392
S1130B4094E7002C45D16B1CD8B2012800DC90E05E
S1130B506446E61B730157D53E1B2C1C0D1CC1E7D4
S1130B60FF24002585E76E4B241A3340661C69E791
S1130B70381C2021E0400C1BA7403E1C771EBE41C0
S1130B80064367462C1CBB1B151C84E76B025D0ADD
S1130B906FE7002E79D16C1CE0B201284BDDFF2CED
S1130BA000D198E061467F18AE1C7B08151C49E70C
S1130BB0FF2D00D068E7B6E7671CFF2F36D05848F2
S1130BC00121194003405B08A61C0B433C1C151C67
S1130BD038E76642002D1ED0FF286FD0802562467C
S1130BE0EB041A43944601251B2E09DC624620239C
S1130BF0F24064469E1BB440251C6C1EA54115435F
S1130C007B1B041C0D1C69E7002E0CD1002201265D
S1130C10042300241DE76446002C55D1461C3B1CCC
S1130C20041C0D1C0EE72C1C151C5BE780235E00C6
S1130C30FF2404230DE7002D00D08CE06546002D31
S1130C4000D1ACE0002F00D180E07B195C0100D41E
S1130C507DE0334F151C3B4002260124F2E6381C8C
S1130C602023F0409E1BB7403B1C5F1EBB41034347
S1130C7023E7002D15D16546002D47D1002FC5D09F
S1130C803B1C0D1C01260024DCE67642002D26D1F7
S1130C906546002D00D07CE0461C3B1C041C151C42
S1130CA0D0E66546002D3FD1002F07D180210022D8
S1130CB04E001C4BFF24CCE6FF2894D180203B1C23
S1130CC00D1C4600FF24BDE6013E002EF4D13B1B63
S1130CD00D1C041C02E780256E000423B9E6FF28DE
S1130CE051D080246146E30419438C4601231B2E12
S1130CF009DC20216446F44065468E1BB5402B1C5C
S1130D00591E8B412343DB19041CD8E6002F1DD048
S1130D10EB1B58014AD57B1B01260D1C002491E6D0
S1130D20FFFFFFFBFCFFFF03002F00D1FBE6802049
S1130D30EB08C403234237D0FF08274234D13B1CBD
S1130D400D1C8022DB005600FF247BE66346151C45
S1130D500126002476E66446002C14D0002F00D12E
S1130D60E1E68023E608D803311C064203D0F908E3
S1130D70014200D0311C151C8022CB005600FF24F8
S1130D8060E6FF28B2D180203B1C151C4600FF24DE
S1130D9058E6013E002EF4D17B19041C8FE63B1C5F
S1130DA0151C012600244DE6151CCAE7002B00D1B2
S1130DB02CE7CCE743024200590A00B5130EC20FD8
S1130DC000207E2B0DDD9D2B0CDC802000040143D4
S1130DD0952B0ADC9620C31AD9404842002A00D138
S1130DE0081C00BD02495018FBE7963B9940F4E704
S1130DF0FFFFFF7F70B5041E3CD0C50F00D04442F6
S1130E00201C01F07FFE9E21261C0B1A962B0ADC67
S1130E100838844061024C0ADBB2DB051C43ED0751
S1130E20201C284370BD992B0ADD0522141A311C9D
S1130E30E140041C1B34A6400A1C711E8E4116435B
S1130E4005281BDC144C0F2234401640042E00D01D
S1130E500434620105D59F231B1AFF2B0CD00E48C6
S1130E6004405E1CF1B2E40801290ADD6402640A4C
S1130E70DBB2D2E7002500230024CEE7411F8E40D9
S1130E80E0E7002CF4D0002B03D08022D0030443ED
S1130E90ECE76602740AC0E7FFFFFFFBF8B55F46A4
S1130EA056464D464446F0B40C03460F640A344398
S1130EB0A3465E001C03DB0F9C46630A98464D0064
S1130EC0530F44461C436D0DC90F760DD2000F1C01
S1130ED0C000A1469246AB1B614500D1A2E0002BA5
S1130EE000DCF0E0002E0CD1261C164300D1C0E03B
S1130EF0013B002B00D041E15C464B46821AE71AC5
S1130F0021E0D04EB54200D1C8E080244A462704EF
S1130F103A439146382B00DD0AE11F2B00DD4BE1FB
S1130F202026F61A4C4652465746B440B740DA409B
S1130F3022433E1C4C46771EBE41DC403243261CF5
S1130F405B46821A9F1B904280414642BB1B141C85
S1130F502E1C0F1C180200D4A9E05D02690A884601
S1130F604246002A00D1D4E0404601F0CBFD051CE6
S1130F70083D1F2D00DDD5E02822131A201C414610
S1130F80D840A940031C0B43AC40AE4200DD8BE0CB
S1130F90AE1B711C1F2900DDFBE01F20851B1A1CE2
S1130FA0201CAA40C840AC401043661EB441044310
S1130FB0CB40012200260F202040042862D0201DAF
S1130FC0A042A441614201255B182F401C0207D5B1
S1130FD09C4EB24200D198E09B4C161C2340013237
S1130FE05C07C00852050443DB08510D012960DD8C
S1130FF01B0371051B0B4E0D002000210A0D201C44
S11310001105924C0B43760575081C402C43630074
S11310105A08FF07111C39433CBC90469946A24626
S1131020AB46F8BD002B00DC8EE0002E2ED0854EA2
S1131030B54200D1A6E080244E4622041643B146B0
S1131040382B00DD16E11F2B00DD71E12026F61A96
S11310504A46B240904652464446DA4022435446F9
S1131060B440261C741EA6414C463243DC40121880
S1131070F4E0041C0F206A1C5B462E1C0F1C20404D
S113108004289CD101252F40201C9FE7144300D045
S1131090DEE06A1C5B46041C2E1C8CE780215B4648
S11310A0041C0A012E1C86E7761B674D2B40721C1C
S11310B081E7251C1D4300D168E2002E41D0802029
S11310C00203134394E7002B00D088E0691C4E050B
S11310D0740D012C00DC1BE15B46161C4C46821A85
S11310E0191B90429B415B42C91A88460B0200D4EB
S11310F09EE0371ABA4592415E46A41B5342E11A58
S113110088463C1C2E1C67462AE7161C0023002434
S113111072E7201C01F0F6FC2030051C083D1F2D51
S113112000DC29E7031C283B9C40231C00242CE7FB
S11311304A4653461A430026002A00D100E70122FA
S1131140FEE61D032B0B57E7002B00D005E16E1CB8
S11311507405630D012B00DCABE03A498E4200D1EB
S113116031E11118814280414B4642425B449B1855
S1131170DC0749080C435B08AA1C1CE7314FBD423D
S113118000D0C7E6041C80205B460F1C02012E1C05
S113119011E7301C1F381A1CC240151C202900D12D
S11311A083E03F218E1BB3401C43631E9C412C43B0
S11311B0012200230026FEE61C1C203C4F46E7408B
S11311C03E1C202B73D04022D41A4B46A3401A1C39
S11311D057463A43531E9A4132430026B0E65F42D3
S11311E0002D51D0174DAE4200D156E180245A460D
S11311F021040A439346382F00DDDBE01F2F00DD76
S113120079E12021CC1B051C5A46A240FD40A04098
S113121015435B46421E90412843FB4057463C1A07
S1131220A24592414846C11A55424B1B674691E676
S1131230081C104331D1002701220023042000267A
S1131240C4E6C046FF070000FFFF7FFFFFFF0F80DB
S1131250013B002B24D153461A184C46824280414C
S11312605C444342E3182E1C141C18023ED4721C26
S11312700F1CA0E64A4653461A430024002A00D114
S1131280F5E601221218E9E75B46034300D083E048
S1131290231C721C544667468DE6141C2E1C5FE604
S11312A0CD4EB54200D0CBE66CE700237CE70022AC
S11312B08EE75E460643002D00D0F4E0002E00D1F8
S11312C04CE14B46134300D17EE115184E4685424E
S11312D080415E444242B3181E0200D482E1BF4FF3
S11312E02C1C3B4002220F1C012664E6BA4D701CE4
S11312F0A8424BD0B94F0125254062083B402C1C25
S1131300DF0714433C43B21C5B08061C0F1C52E667
S11313105E460643002D2CD1002E00D07DE04E46C3
S1131320141C164387D04B4667460122002642E62A
S11313301E1C203E4C46F440261C202B00D1D8E035
S11313404022D41A4B46A3401A1C54462243531E2F
S11313509A4132430024121880E75B42002D37D1B2
S11313605C46044300D0D7E0721C4B4654460F1C25
S113137021E6002E6ED14B46141C134300D1DCE051
S113138080254B4667462A01934E14E68021061CAD
S11313900A010023042019E6013F002F79D1171A0E
S11313A05B46BA45AD414946CA1A68423C1C131A09
S11313B06746CFE55F46074300230020002F00D196
S11313C02CE701202AE780252A0100230420FDE5DB
S11313D0814DAE4200D1D3E080245D462204154302
S11313E0AB46382B00DDB0E01F2B00DDDBE0202511
S11313F0ED1A021C5C46AC40DA40A840451EA841E8
S1131400224302435846D840031C554654195445B8
S113141092414B4450421B1827E74A4656463243F2
S113142000D185E0851B5B464C46A8429241191BBE
S113143056428B1B1E0200D4ADE057463D1A5B4654
S1131440AA458941E41A4A42A31A67462C1C012280
S11314500026B0E54D46161C154344D05C46802159
S1131460C0086207E3080D0310432B4200D181E05A
S11314704C46E10829427DD1F70866073E430B1C20
S11314806746700FDB008022F40003431201524EC2
S113149091E5514DAE4200D0ADE680204B46544616
S11314A06746020187E5002E5ED04C4614431AD0ED
S11314B0C7088025584643072C03C0081F43204211
S11314C008D04E46F308234204D15246D508770784
S11314D0181C2F43C300FC00780F0F1C802103430A
S11314E00A013D4E67E5802632015B46041C3A4EF4
S11314F061E5002229E7391C20395C46CC40221CD6
S1131500202F67D04023DF1B5D46BD402843431E88
S113151098411043002381E6013B002B2CD1504419
S11315205C469042AD414C446A42A318041C9CE6BC
S11315305B46041C012200263DE58024042100278B
S11315402201274B4842244E40E55D4605430023D3
S11315500022002D00D158E7012256E7141C4B4607
S11315600F1C0122002626E5141C80224B46120182
S1131570194E20E5061C84E7174A964200D030E74E
S11315800F1C80214B4654460A0114E57605760D5E
S11315900023002430E5181C284300D14BE62C1C02
S11315A00122002607E51C1C203C5D46E5402C1C5E
S11315B0202B1CD04022D31A5A469A400243501E74
S11315C082412243002320E75B46041C0F1C0122B6
S11315D00026F0E4002599E7FF070000FFFF7FFFE6
S11315E0FFFF7F002C1C0F1C01220026E3E40022D5
S11315F0E4E7C046F0B54D4644465F465646F0B46F
S11316001D1C4B00141C0E035B0DCA0F87B0071C76
S1131610360B98469146002B1DD1321C024300D153
S113162081E1002E00D104E2301C01F06BFA27287E
S113163000DDF8E12821031C083B0A1A391C9E40EE
S1131640D1400E439F40C14B0021181A002280460E
S11316508A4600920FE0BE48834231D080214B037A
S11316601E43BC487A0FF600002100231643FF00F6
S113167080448A460093291C201C251C4A000C0324
S1131680CB0F240B520D9B4625D1211C014300D1C5
S113169050E1002C00D1C2E1201C01F033FA2728CC
S11316A000DDB6E1031C2822083B291C121A9C40C9
S11316B0D1400C439D40A54B1A1A0020029019E01A
S11316C0321C3A4300D029E108270223BA460026F7
S11316D000270093CFE79E48824200D113E1802186
S11316E04B031C439B49680FE40000230443ED00B3
S11316F05218029348465B46434002985146019370
S113170001430F2900D8DFE043469A1A0492A64207
S113171000D86EE171087B08F6073343FA0789465F
S113172098460292280E240204432D022704390C01
S1131730AB46250C00914846291CFEF77DFE009F10
S1131740061C4743291C4846FEF7BAFE43460804D4
S11317501A0C1043874207D90019013E844203D86A
S1131760874201D9013E0019C11B8A46081C291C65
S1131770FEF762FE009B071C4343291C5046994612
S1131780FEF79EFE424610040B04010C0B439945E0
S113179004D91B19013F9C4200D864E136043E433E
S11317A05F464A46390C89469B1A59463204170C3F
S11317B00A0449467943120C03928C460399300C6F
S11317C07A4341434F4678438C44170C6744B942EB
S11317D002D9802149024018390C120440183F04F0
S11317E0110C7F18834200D227E100D141E1029914
S11317F01B1ACF1BB942804141425A1A9046A24259
S113180000D15FE1101C291CFEF716FE009B02901C
S11318104343291C40469A46FEF752FE380C0904FD
S113182001438A450AD9029A0919013A02928C4263
S113183004D88A4502D9013A029209195346C81AB2
S1131840291C0590FEF7F8FD009A291C42438046A6
S113185005989246FEF734FE3F040D043A0C2A43E1
S1131860924509D901214B4212199844944203D854
S1131870924501D998441219029D43462F041F43EF
S11318805046111A3804030C4D465D430398AC4688
S1131890039D3A0C584355434B465A43AC44030CFE
S11318A063449D4202D980256D0252191D0C000427
S11318B052191B04050C5B19914200D2E6E000D1D9
S11318C03DE1012217435AE0890023488C466044D5
S11318D001688F46019B1E4A002600270020002134
S11318E0381C0F0D3C051D4D34431205254015438E
S11318F06E00DB077108194307B03CBC904699465B
S1131900A246AB46F0BD211C03202943029000D01F
S1131910F0E60223002400250293EBE60C200321C9
S113192082460091A7E604270123BA460026002731
S11319300093A0E60121002400250291DAE60127A4
S11319400023074E7F42024AC8E7C0460DFCFFFF52
S1131950FF07000001FCFFFFC8560000FFFF0F80D7
S1131960FFFF0F002F1C5A46029D261C0192022DD8
S1131970B0D0032D00D101E1012D00D19CE0049BE6
S113198082481A18002A00DC8CE00F243C40042C06
S113199005D03B1DBB42BF417D4276191F1CF1019E
S11319A005D57B4A04998020C40016400A19794B56
S11319B09A4200DD8EE77507FF08760251052F4332
S11319C0360B4A0D019B89E700220026002785E794
S11319D0802001030E4216D00C4214D10C4326037E
S11319E0360B5B462F1C6C4A78E74C460194009DED
S11319F0BDE7A64243D00498B846013800270490B6
S1131A00B14602978EE60E4333031E0B624A4B46E1
S1131A1064E7041C283CA5402C1C00254BE601F07F
S1131A2071F820303BE6061C283EB7403E1C0027D8
S1131A3009E601F067F82030F9E5029A013E111C2D
S1131A4059445945924152421219D3189C4204D226
S1131A5098426BD816D01B1ACBE6A342FBD18B4518
S1131A60F6D9231AC5E6994500D897E6013F1B1914
S1131A7094E6029ABA42E0D302990023B9E6AF424F
S1131A80B9D947E68F4251D80023B2E60919013F7C
S1131A9058468C4219D9914200D012E7984200D09E
S1131AA00FE76CE73D4C049D631B382B1CDD019B49
S1131AB000220026002711E7019B00222B4000266C
S1131AC000270BE701277F4259E78A4203D800D059
S1131AD0F7E69842E2D25D4668005845AD416D4252
S1131AE02C19013F0919D6E71F2B34DC049C2C4A1E
S1131AF0381CA518311CAF40D840A9403C1C0143F8
S1131B00671EBC410F1C2743DE400F233B40042BC0
S1131B1005D03A1DBA42BF417D427619171C3202E4
S1131B2011D5019B012200260027D7E659445945C7
S1131B30924152421219D318013E1B1A59E6002B46
S1131B40A4D10020AAE77007FF08710207430E0B17
S1131B50019B0022C2E61349049C301C0A1BD0409E
S1131B60051C202B08D0104BE1188E4037437B1EF8
S1131B709F412F430026C8E70026F7E78022100381
S1131B80064331030E0B019B034AA7E6FF03000043
S1131B90FFFFFFFEFE070000FF07000002FCFFFF3F
S1131BA01E040000E2FBFFFF3E040000F0B5944673
S1131BB047461A03061C580080B4170B420D1948F7
S1131BC00D034C00DB0F2D0B640DC90F98468442A6
S1131BD008D0144882420DD00120944212D004BC93
S1131BE09046F0BD2B1C33430120002BF7D10D4848
S1131BF08242F1D163463B430120002BEFD1012007
S1131C009442ECD1BD42EAD16645E8D1414506D0C3
S1131C10002CE4D1281C3043451EA841DFE70020F6
S1131C20DDE7C046FF070000F0B557464E4645467F
S1131C30E0B4041C4E000803C90F8A46171C59005F
S1131C401A03050B700D160B4A0D3049DB0F9C4629
S1131C50884232D02D498A4235D000280FD1291C20
S1131C6021434B424B419846002A0BD0002B1AD1FA
S1131C70E2452CD05546002D18D1012018E0002A49
S1131C80F6D19046311C39434B424B414146002921
S1131C9006D1002BECD056460120002E08D005E0DA
S1131CA00020002B04D16746002FE6D101235842BF
S1131CB01CBC90469946A246F0BD2B1C2343C9D0B8
S1131CC002214842F4E7331C3B43C6D0F8E7904274
S1131CD005DC09DA5246002AE8D00120E8E7544638
S1131CE0002CE3D10120E3E7B542C3D807D000209C
S1131CF0B542DDD250460028D8D00120D8E7BC42F6
S1131D00B8D80020BC42F5D3D2E7C046FF07000094
S1131D10F0B544465F4656464D46F0B49446061C1C
S1131D201A035800170B420D2E480D034C00DB0F0D
S1131D302D0B640DC90F9846844233D02948824242
S1131D4036D0002C19D0002A20D1934663463B4359
S1131D50584258415B468246002B1DD05146002014
S1131D60002904D14246002A14D1012460423CBC1B
S1131D7090469946A246AB46F0BD2B1C33435842CD
S1131D8043419B46002AE1D0002BEBD1414515D0BD
S1131D900029EAD10120EAE70028F7D00120002930
S1131DA0E5D0E2E72B1C33430220002BDFD1C5E74B
S1131DB063463B430220002BD9D1C2E79442E7DCBF
S1131DC005DBBD42E4D806D00020BD42CFD20029B5
S1131DD0CBD00120CBE76645DAD800206645F6D3A0
S1131DE0C5E7C046FF070000F0B5564644465F46C7
S1131DF04D46F0B44F001D1C0B03141C1A0B7B0D35
S1131E0087B0061C92469846CF0F002B21D102437F
S1131E1000D149E15346002B00D1E4E1504600F0E3
S1131E2071FE031E272B00DDD8E1083B5146994083
S1131E3028228846111A321CCA4041460A43924657
S1131E409E40D84B0022181A0021804691460391E7
S1131E5011E0D54883423ED0802153464A031A43B9
S1131E60D000710F0843D14A824600230020F600B7
S1131E70904499460390291C201C251C4A000C03FD
S1131E80CB0F240B520D9B4631D1211C014300D1B1
S1131E9012E1002C00D19DE1201C00F033FE272824
S1131EA000DD91E1031C2822083B291C121A9C40E6
S1131EB0D1400C439D40BB4B59461A1A794000202F
S1131EC04B46019103430F2B26D89900B84B8C46FF
S1131ED0634419688F46111C314300D0DFE00826A3
S1131EE000200221B146824600260391C3E7AE4892
S1131EF0824200D1C9E080214B031C43AB49680FE7
S1131F00E4000443ED0052180020594679404B4642
S1131F10019103430F2BD8D942443304290404927A
S1131F201A0C0F0C101C7843360C331C80462D0CF5
S1131F307B43301C6843111C69439C4643468346DB
S1131F40180C08186044844500D91FE1010C43466D
S1131F50039119040B0C0004C0182104240C0590EF
S1131F60101C6243090C02924843321C66434A43E4
S1131F70029BB146060C9046B4461A1C6244424485
S1131F80904502D9802673029944160CB046C14488
S1131F9000044B46060C120402939319564632046D
S1131FA0100C021C6A439C46031C7B439146320C72
S1131FB0574398461B0C9A46D144B94455434F4560
S1131FC002D980277E02AD194B461F0C4646ED19F7
S1131FD01F0433041E0C031C4B43604351435443FE
S1131FE01A0C8018B046401847449A46814202D9D8
S1131FF080214E02A419039B1A1C62445A44624570
S113200089414E425146B34603040E049C4602994C
S1132010330C6344CE18B046C246DA44D219BA42ED
S1132020BF4151467B426F18F9189946DA459B41E6
S11320305E42029BB3469845B64176425B461E43D8
S1132040000C49459B41AF42AD4136186F4258429E
S1132050384336180598341956020643CB0D6402EA
S1132060701E8641D20D164349021C430E43E00103
S11320702FD50127049D374073083E1CE007013526
S11320801E4304950643640823E0231C2B430320CA
S1132090002B00D039E700240025022035E70C226C
S11320A0032391460393E6E6042600230120B14668
S11320B09A4600260390DEE600240025012024E74A
S11320C003985446022844D0032800D1EAE00128AA
S11320D060D0049A37495018002800DC95E00F2797
S11320E03740042F05D0311DB142B6417542641901
S11320F00E1CE10105D53048049A8023DF0004401A
S1132100D0192E49884224DC019B6507F608640235
S1132110420501272E43240B520D1F4000200021AD
S1132120090D0D052543264C12052C40144363006C
S1132130301C5E08FF07311C394307B03CBC904695
S11321409946A246AB46F0BD5A462E1C019202287F
S1132150BAD1019E01273740134A00240026DDE747
S1132160544601970398ADE701260027154C7642A3
S11321700D4AD3E72E1CA5E78022130351461942CA
S113218035D10B431D032C0B074AC7E780214B02B3
S11321909B44DBE6019B00221840C7B200240026C2
S11321A0BCE7C0460DFCFFFFFF07000001FCFFFF7A
S11321B008570000FF030000FFFFFFFEFE070000BA
S11321C0FFFF0F80FFFF0F00041C283CA5402C1CC0
S11321D0002570E600F096FC203060E6283B9E4027
S11321E0B24600262DE600F08DFC203019E61C4294
S11321F006D11C432603340B5F462E1C2E4A8DE762
S11322000B431803040B2C4A88E72C4F049D7B1BBB
S1132210382B06DD019E01273740002200240026CA
S11322207CE71F2B21DC049A254F351CD119201C77
S11322308E40DD408840321C2843561EB241061CA5
S11322401643DC400F233340042B05D0371DB7421F
S1132250B641714264183E1C250217D5019B012723
S11322601F4001220024002658E71648049A211C26
S1132270871AF9400D1C202B12D0134BD018844020
S11322802643721E96412E430024DBE7019A65071C
S1132290F6086002012717402E43040B00223DE795
S11322A00024EDE780210F033C4301982403012718
S11322B0240B0740004A31E7FF07000002FCFFFF40
S11322C01E040000E2FBFFFF3E040000F0B5574689
S11322D04E464546E0B4071C0D034E00680ACC0F79
S11322E0790F08438446111C18035A00FD00400A64
S11322F0DF0F4B0F1843C74BC900760D520D8A46AA
S11323009A4200D1DEE001235F40B946BC4200D1CD
S1132310A6E0B71A002F00DC0BE1002A12D15246C6
S1132320024300D1D2E0013F002F00D05BE15146CF
S11323306F1ABD42AD4162466B42101A3D1CC31A6E
S1132340371C24E0B34A964200D1DEE080210B041E
S11323501843382F00DD1EE11F2F00DD60E120212E
S1132360C91B021C53468A40FB401A4353468B4008
S1132370191C4B1E9941031C0A43FB40AA1A6746C9
S11323809542AD41F81A6B42C31A151C371C1A0248
S113239000D4C2E05E02710A88464246002A00D197
S11323A0EBE0404600F0AEFB021C083A1F2A00DDB9
S11323B0ECE02823181A2E1C4146C6409140331CD9
S11323C00B439540974200DDA4E0D01B411C1F291C
S11323D000DD0DE11F273A1A2E1C181CCE40904038
S11323E0954030436A1E9541CB40054301210027A7
S11323F00F262E40042E00D170E02E1DAE42AD41BA
S1132400684201221B181440180207D5814FB942B3
S113241000D1AEE0804D0F1C2B400131F20849057C
S11324205E073243DB08480D012800DC77E01B031C
S11324307F051B0B7E0D002000210D0D101C2905AE
S1132440764A0B4377057E081A40324353005D08F1
S1132450291CE40721431CBC90469946A246F0BDC2
S1132460B31A002B00DCA3E0002A3BD0694A964251
S11324704BD080210F043843382B00DC14E1534641
S1132480184300270022002800D001225219AA4232
S1132490AD4167446B42FB18151C371C1E023CD52A
S11324A05C487E1C864200D177E15B4901222A40C8
S11324B00B406808151CD90705430D435B08B91C7C
S11324C0371C95E7014300D11DE71EE7711C371C3B
S11324D00F2663462E40042E00D08EE701221440BE
S11324E02E1C91E752460243F0D0013B002B09D148
S11324F057467919A9429241554260444319371C01
S11325000D1CCBE743498E42B6D1802063460101BE
S1132510371C6DE7BF1A404A1340791C68E7151C45
S11325201D4300D120E2002F3ED0802631030B430F
S11325307DE7002F00D085E0721C51054B0D012B67
S113254000DCEFE05746EA1B95429B416746391A87
S11325505B42C91A88460B0200D49CE05446651BB2
S1132560AA459241C01B5742C31B9846371C4C4690
S113257013E70E1C002300225DE7281C00F0C2FABA
S11325802030021C083A1F2A00DC12E72838854054
S11325902B1C002516E75746384300230022002849
S11325A000D1EBE60122E9E61803030B002642E71B
S11325B0002B00D0D8E0771C79054A0D012A00DCF5
S11325C094E0144B9F4200D1FDE051464919A942C1
S11325D0AD4162466B428018C2184908D5070D43C5
S11325E05308B11C04E70B498E4200D0B1E68CE7D6
S11325F0061C1F3E1F1CF7403E1C202972D03F22A0
S1132600101A83401D436B1E9D4135430121002355
S11326100027EDE6FF070000FFFF7FFFFFFF0F80AD
S11326203B1C203B011CD9400B1C202F5CD04022BA
S1132630D71BB840021C50460243511E8A411A431C
S113264000239BE67F42002E40D0CA4CA24200D118
S11326501FE1802166460B041E43B446382F00DD7B
S1132660A9E01F2F00DD3DE12023DE1B291C644669
S1132670B440F940B5406B1E9D41214363460D4370
S1132680FB4057467D1BC01AAA459B415F42C31BB2
S11326904C46171C7BE60D1C154320D10024012158
S11326A0002304260027AFE61F2B4ADC2021C91A89
S11326B0071C52468F40DA403A4357468F40391C34
S11326C04F1EB941D8400A43071CDFE664462C4339
S11326D069D1511C031C5546171C4C4688E6151C31
S11326E0371C5AE600238DE70022A4E767462F43F0
S11326F0002E00D0D4E0002F00D126E1534603433E
S113270000D1E4E051464F19AF42AD4160446E42FE
S113271083191E0200D44EE197483D1C0340022158
S1132720012765E661462943002E29D1002976D187
S113273051460143B2D0031C55464C4601210027A3
S113274056E61F1C203F011CF9400F1C202B00D112
S1132750C6E04022D31A9840021C50460243531E3E
S11327609A413A43002791E65B42002E30D16746F6
S11327702F4300D0C8E0511C031C5546171C37E6F4
S1132780002965D15746074300D1C8E0031C8020C7
S113279055464C460101774F2AE68023371C190120
S11327A00426002330E6013F002F6ED154466146D3
S11327B0651B401A68E767463D430023002D00D19E
S11327C05FE701255DE780263101002304261BE62F
S11327D068498A4200D1C1E08027664639040E4325
S11327E0B446382B00DDA2E01F2B00DDD0E0202111
S11327F0C91A2E1C67468F408D40DE403E43291C7B
S113280067464D1EA941DF40351C0D433E1C55440F
S113281055459B4130185E428319171C3EE65646C7
S1132820064354D05746EA1B63469542B641191AEB
S11328307342CB1A1E0200D4A2E07D1B6446AA4553
S1132840BF41001B7A42831A4C4601210027CFE581
S1132850564606433FD0624680215707ED08D30809
S11328600A033D43134208D0C608164205D1554613
S1132870EC0845072543331C4C46680FDB008026D3
S11328800343ED0031013B4FB2E53A498A4200D09F
S1132890E4E68026031C55464C463101171CA7E587
S11328A0002F4CD05346034315D062468026ED08D2
S11328B05107D30837030D433B42DED0C2083A42E6
S11328C0DBD15546E9084507131C0D43D5E763469C
S11328D0012100278CE5802739016346254F87E5D0
S11328E000223AE73C1C203C6646E640331C202F7D
S11328F05FD04024E71B6646BE40311C0D43691E71
S11329008D411D430023BCE6013B002B22D15544DD
S11329105545BF417B426044C318171CBEE5802166
S1132920042200240901154B5642124F6CE56346FC
S11329301D430026002D00D169E7012567E78022A9
S1132940031C554611010B4F52E5031C554601214A
S113295000274DE507498A4200D042E78021031C45
S113296055460901171C43E57A05560D002300223C
S113297061E5C046FF070000FFFF7FFFFFFF7F0008
S11329801D1C154300D189E6151C012100272FE5E4
S11329901F1C203F6146F940202B10D04026F31A1B
S11329A067469F403B1C1D436B1E9D410D43002603
S11329B02DE70021A2E73D1C0121002718E5002393
S11329C0F1E7C046134A0B0330B5051C48001C0B45
S11329D0C90F430D0020934211DD0F4883420FDCE1
S11329E0802250030D4A0443D01A1F280BDD0C4DDE
S11329F0EB1ADC40221C5042002900D1101C30BDCF
S1132A00084C0819FBE7C54007482A1C1D18AC40B0
S1132A102243F0E7FE0300001D040000330400001D
S1132A2013040000FFFFFF7FEDFBFFFFF8B5041E5A
S1132A302DD0C50F00D04442201C00F063F8164985
S1132A400A1A0A2816DD0B388440570526037A0D26
S1132A50360B002700200021381C0F0D3B050F4CBE
S1132A6033431C401605344361004A08ED07111C2A
S1132A702943F8BD0B26011C301A1531231CC44010
S1132A808B40520521031F1C0E0B520DE2E700255B
S1132A90002200260027DDE71E040000FFFF0F8050
S1132AA070B5041E26D000F02DF814490A1A0A281D
S1132AB013DD0B38844056052403720D250B0026C4
S1132AC000200021301C0E0D33050D4C2B43110545
S1132AD01C400C436500690870BD0B23051C181AC3
S1132AE01535211CC440A940520525030E1C2D0B8D
S1132AF0520DE5E7002200250026E1E71E04000050
S1132B00FFFF0F801C2101231B04984201D3000CFA
S1132B1010391B0A984201D3000A08391B0998424C
S1132B2001D30009043902A2105C40187047C04662
S1132B300403020201010101000000000000000082
S1132B4080B584B000AF78600D4BFB60FB687A6899
S1132B509A60FB6801221A71002000F08DF8021CB3
S1132B60FB681A60FB681B68002B01D1002303E09B
S1132B70044BFA681A64FB68181CBD4604B080BD97
S1132B8008F0FF1F70F0FF1F80B584B000AF7860BD
S1132B90054B1B6CFB60FB689B68181C00F0C6FCB3
S1132BA0BD4604B080BDC04670F0FF1F80B584B040
S1132BB000AF78600D4BFB60FB687A689A60FB6835
S1132BC001221A71002000F047FA021CFB681A6007
S1132BD0FB681B68002B01D1002303E0044BFA6857
S1132BE0DA60FB68181CBD4604B080BD14F0FF1FFA
S1132BF070F0FF1F80B584B000AF78607B68FB6025
S1132C00FB681B79002B07D1FB6801221A71FB6852
S1132C101B68181C00F06CFA0023181CBD4604B095
S1132C2080BDC04680B584B000AF78607B68FB602F
S1132C30FB681B79002B07D0FB6800221A71FB6824
S1132C401B68181C00F066FA0023181CBD4604B06B
S1132C5080BDC04680B584B000AF7860054BDB68AA
S1132C60FB60FB689B68181C00F07EFDBD4604B049
S1132C7080BDC04670F0FF1F80B584B000AF78609F
S1132C80254BDB6B002B36D1244BFB60FB687A6849
S1132C905A60FB6801221A70214BFA681A60214AB3
S1132CA02049214BCB58012119431F4BD1501F4BB5
S1132CB080221A601D4B1E4A9A601C4B04225A60E3
S1132CC01C4A1C49C7239B00CB58FF218B438021FE
S1132CD01943C7239B00D150164B164A1268802112
S1132CE049050A431A60114B41221A600A4BFA68DB
S1132CF0DA63FB680CE0084BDB6BFB60FB687A680B
S1132D005A60FB681B780133DAB2FB681A70FB68FF
S1132D10181CBD4604B080BD70F0FF1F20F0FF1FDB
S1132D2028F0FF1F00700440381000000000044029
S1132D30FF3F000000E100E080B582B000AF084B27
S1132D401B687B60074B074A126880210A431A609C
S1132D507B685B68181CFFF717FFBD4602B080BD97
S1132D6028F0FF1F0000044080B584B000AF7860F5
S1132D70274BDB6A002B39D1264BFB60FB687A6852
S1132D809A60FB6801221A71234A2349234BCB58CA
S1132D90802189041943214BD150214B00221A6010
S1132DA01F4B00225A601E4B0022DA601C4B00228B
S1132DB05A611B4B1B4A9A60194B2C22DA60184B40
S1132DC0194A1A61194B194A1168194A0A40C02153
S1132DD089000A431A60FB6808221A60104B0B2210
S1132DE01A600B4BFA68DA62FB680CE0084BDB6A8A
S1132DF0FB60FB687A689A60FB681B790133DAB27E
S1132E00FB681A71FB68181CBD4604B080BDC0463F
S1132E1070F0FF1F2CF0FF1F007004403C100000F6
S1132E2000900340CCCC00007DBF000000A0044013
S1132E30FFF8FFFE80B584B000AF786039600B4BBB
S1132E409A683B1C0E331A803B1C0E333A1C0E321C
S1132E50128801321A803B683A1C0E3212881A809A
S1132E600023181CBD4604B080BDC046009003403A
S1132E7080B582B000AF7860FB1C19703B1C1A80CF
S1132E80FB1C1B78002B01D0822313E0FB1C1B7856
S1132E900A4AD35C002B01D009230BE00849FB1C30
S1132EA01B78084AD35C3A1C12880133DB00CB1828
S1132EB09A600023181CBD4602B080BD4C57000028
S1132EC0009003404857000080B584B000AF78609C
S1132ED0334B5B69002B51D1324BFB60FB687A6842
S1132EE05A60FB6801221A702F4A2F492F4BCB5886
S1132EF08021490419432D4BD1502D4B00221A60D7
S1132F002B4B00225A602A4B0022DA60284B002205
S1132F105A61274B0022DA61254B00225A62244B66
S1132F200022DA62224B00225A63214B214A9A6022
S1132F301F4B2C225A621E4B1F4A9A621C4B2C2296
S1132F40DA601B4B1C4A1A611C4B1C4A11691C4A4F
S1132F500A408021C9000A431A61184B174A516874
S1132F60174A0A408021C9000A435A60104B0B22B9
S1132F701A600B4BFA685A61FB680CE0084B5B69FA
S1132F80FB60FB687A685A60FB681B780133DAB22D
S1132F90FB681A70FB68181CBD4604B080BDC046AF
S1132FA070F0FF1F38F0FF1F007004403C10000059
S1132FB000800340CCCC00009A99000000B004408B
S1132FC0FFF8FFFE80B584B000AF786039600B4B2A
S1132FD09A683B1C0E331A803B1C0E333A1C0E328B
S1132FE0128801321A803B683A1C0E3212881A8009
S1132FF00023181CBD4604B080BDC04600800340B9
S113300080B582B000AF7860FB1C19703B1C1A803D
S1133010FB1C1B78012B01D9822313E0FB1C1B78BA
S11330200A4AD35C002B01D009230BE00849FB1C9E
S11330301B78084AD35C3A1C12880133DB00CB1896
S11330409A600023181CBD4602B080BD545700008E
S1133050008003405057000080B584B000AF786012
S11330601E4B9B68002B28D11D4BFB60FB687A68C4
S11330705A60FB6801221A701A4BFA681A601A4BDC
S113308000221A60184BD1225A60174B00229A6012
S1133090164A1649D2231B01CB581B021B0A802156
S11330A009061943D2231B01D1500F4B07221A6082
S11330B00A4BFA689A60FB680CE0084B9B68FB605B
S11330C0FB687A685A60FB681B780133DAB2FB68E4
S11330D01A70FB68181CBD4604B080BD70F0FF1F59
S11330E040F0FF1F48F0FF1F10E000E000E000E0A8
S11330F080B582B000AF7860054B054A12680121A3
S11331000A431A600023181CBD4602B080BDC046A5
S113311010E000E080B582B000AF7860054B054A4E
S1133120126801218A431A600023181CBD4602B0AC
S113313080BDC04610E000E080B582B000AF084B0F
S11331401B687B60074B074A1168074A0A401A60EC
S11331507B685B68181CFFF77DFDBD4602B080BD2F
S113316048F0FF1F10E000E0FFFFFEFF80B584B0D1
S113317000AF78600F4BFB60FB687A689A60FB686D
S113318001221A71FB680C4ADA800020FFF79CFECA
S1133190021CFB681A60FB681B68002B01D100232A
S11331A003E0064BFA681A62FB68181CBD4604B0BB
S11331B080BDC0464CF0FF1FFFBFFFFF70F0FF1F34
S11331C080B584B000AF78600A1CBB1C1A807B6891
S11331D0FB60BB1C1A88164B9A4201D9022323E0D8
S11331E0BB1C1B88181CFDF705FE031C181C114989
S11331F0FDF7DAFA031CBB60B8680F49FDF7D0F994
S1133200031C002B04D0FB6801225242DA8006E042
S1133210B868FDF7D9F9031C9AB2FB68DA807B68B9
S1133220181C00F00BF80023181CBD4604B080BD28
S1133230204E0000E3B6514000FF7F4780B586B0C2
S113324000AF78607B683B613B691A683B1C0E33B6
S1133250101C191CFFF7B6FE3B1C0E331B88002BF9
S113326005D13B1C16333A69D2881A8011E03B1C05
S11332700E331B883A69D2885A433B1C0E331B8891
S1133280591E80231B020B40D3181A0C3B1C163307
S11332901A803B691A683B1C16331B88101C0121D9
S11332A01A1CFFF7ADFEBD4606B080BD80B584B0E4
S11332B000AF78600F4BFB60FB687A689A60FB682C
S11332C001221A71FB680C4ADA800020FFF74CFDDA
S11332D0021CFB681A60FB681B68002B01D10023E9
S11332E003E0064BFA681A63FB68181CBD4604B079
S11332F080BDC04658F0FF1F5BEFFFFF70F0FF1F5B
S113330080B584B000AF78600A1CBB1C1A807B684F
S1133310FB60BB1C1A88164B9A4201D9022323E096
S1133320BB1C1B88181CFDF765FD031C181C1149E8
S1133330FDF73AFA031CBB60B8680F49FDF730F992
S1133340031C002B04D0FB6801225242DA8006E001
S1133350B868FDF739F9031C9AB2FB68DA807B6818
S1133360181C00F00BF80023181CBD4604B080BDE7
S1133370204E0000E3B6514000FF7F4780B586B081
S113338000AF78607B683B613B691A683B1C0E3375
S1133390101C191CFFF74EFD3B1C0E331B88002B21
S11333A005D13B1C16333A69D2881A8011E03B1CC4
S11333B00E331B883A69D2885A433B1C0E331B8850
S11333C0591E80231B020B40D3181A0C3B1C1633C6
S11333D01A803B691A683B1C16331B88101C002199
S11333E01A1CFFF745FDBD4606B080BD80B584B00C
S11333F000AF78600F4BFB60FB687A689A60FB68EB
S113340001221A71FB680C4ADA800020FFF75CFD88
S1133410021CFB681A60FB681B68002B01D10023A7
S113342003E0064BFA689A61FB68181CBD4604B0B9
S113343080BDC04664F0FF1FFFBFFFFF70F0FF1F99
S113344080B584B000AF78600A1CBB1C1A807B680E
S1133450FB60BB1C1A88164B9A4201D9022323E055
S1133460BB1C1B88181CFDF7C5FC031C181C114948
S1133470FDF79AF9031CBB60B8680F49FDF790F893
S1133480031C002B04D0FB6801225242DA8006E0C0
S1133490B868FDF799F8031C9AB2FB68DA807B6878
S11334A0181C00F00BF80023181CBD4604B080BDA6
S11334B0204E0000E3B6514000FF7F4780B586B040
S11334C000AF78607B683B613B691A683B1C0E3334
S11334D0101C191CFFF776FD3B1C0E331B88002BB8
S11334E005D13B1C16333A69D2881A8011E03B1C83
S11334F00E331B883A69D2885A433B1C0E331B880F
S1133500591E80231B020B40D3181A0C3B1C163384
S11335101A803B691A683B1C16331B88101C002157
S11335201A1CFFF76DFDBD4606B080BD80B582B0A4
S113353000AF786000F0D2FFBD4602B080BDC04647
S113354080B500AF00F028FFBD4680BD80B500AF58
S1133550FFBEBD4680BDC04680B500AF304A31498C
S1133560314BD150314A88235B010021D1502F4A7D
S11335702E492F4BCB58F821890119432C4BD1509C
S11335802A4A2A492A4BCB5801211943284BD150A6
S1133590264A284B0021D150244A2449264BC95895
S11335A0264B1940244BD150204B204A1268C0218D
S11335B009030A431A601D4A1C491F4BC958204B72
S11335C00B408021490419431B4BD1501D4B06224B
S11335D01A701C4B00225A701A4B1A4AD278D1B274
S11335E01F220A40D2B2DA70174B80221A70154B90
S11335F000221A71134B00225A71C046114B9B7959
S1133600DBB21A1C10231340F8D0C0460D4B9B7933
S1133610DBB21A1C0C231340F8D1BD4680BDC04652
S113362000E000E000000000080D0000007004400D
S1133630381000004410000004100000FFFFFEFFDB
S1133640FFFFFFFC004006400050064080B500AF7D
S11336503E4B3E4A11693E4A0A40E021C9000A43F2
S11336601A613C4B3B4A5279D2B21F218A43D2B2EF
S11336705A71384B374A1279D2B207218A43D2B2EF
S11336801A71354B344A1278D2B2D2B273218A43BA
S1133690D2B250210A43D2B2D2B21A702E4B2E4A61
S11336A05278D2B2D2B263218A43D2B240210A43C1
S11336B0D2B2D2B25A70284B274A9278D2B2192188
S11336C08A43D2B29A70254B00221A701F4B1F4AAC
S11336D0116D1F4A0A40E021C9000A431A65204AB5
S11336E01F49C1239B00C9581E4B1940C1239B008D
S11336F0D150002000F014FA002000F0C9F9002095
S1133700FFF754FA00F050FB0020FFF76FFE002093
S113371000F076F90020FFF729FD002000F0F4F80E
S1133720002000F0A3F80020FFF7C0FD002000F007
S113373073F8002000F022F80020FFF701FA0020BF
S113374000F02AF962B6BD4680BDC0460090044030
S1133750FFF8FFFE00F0074000D0074000E00740FC
S113376000E100E0FFFF00FF80B582B000AF7860A9
S113377000F056FEBD4602B080BDC04680B584B0A0
S113378000AF7860114BFB60FB687A681A60104BDD
S11337900F4A5269802149000A435A610C4B0C4A72
S11337A011680C4A0A401A600B4B0B4A116A0B4A07
S11337B00A40802149000A431A62094BFA689A6355
S11337C0FB68181CBD4604B080BDC046B8F0FF1F9E
S11337D040F00F40FFFEFFFF00A00440FFF8FFFE93
S11337E070F0FF1F80B582B000AF78600A1CFB1C2C
S11337F01A70FB1C1B78002B04D0064B802252004D
S11338005A6003E0034B802252009A60BD4602B026
S113381080BDC04640F00FF880B584B000AF78603A
S11338200D4BFB60FB687A681A600C4B0B4A5269BB
S113383004218A435A610A4B094A9168094A0A4099
S1133840802149000A439A60074BFA685A63FB686F
S1133850181CBD4604B080BDBCF0FF1F00F10F4032
S113386000D00440FFF8FFFE70F0FF1F80B584B065
S113387000AF7860114BFB60FB687A681A60104BEC
S11338800F4A5269802189030A435A610C4B0C4A3E
S113389011680C4A0A401A600B4B0B4A516D0B4AD3
S11338A00A40802149000A435A65094BFA689A6222
S11338B0FB68181CBD4604B080BDC046C0F0FF1FA5
S11338C000F10F40FFFFDFFF00D00440FFF8FFFED0
S11338D070F0FF1F80B582B000AF78600A1CFB1C3B
S11338E01A70FB1C1B78002B04D0064B8022920319
S11338F05A6003E0034B802292039A60BD4602B0F3
S113390080BDC04600F10FF880B584B000AF786088
S1133910104BFB60FB687A681A600F4B0E4A5269C1
S113392004210A435A610C4B0B4A126804218A434E
S11339301A600A4B094A9168094A0A4080214900E1
S11339400A439A60074BFA685A62FB68181CBD4622
S113395004B080BDC4F0FF1F80F00F4000B00440ED
S1133960FFF8FFFE70F0FF1F80B582B000AF7860F3
S11339700A1CFB1C1A70FB1C1B78002B03D0054B84
S113398004225A6002E0034B04229A60BD4602B04E
S113399080BDC04680F00FF880B584B000AF786079
S11339A0114BFB60FB687A681A60104B0F4A52692E
S11339B0802189000A435A610C4B0C4A11680C4A55
S11339C00A401A600B4B0B4A516A0B4A0A40802189
S11339D049000A435A62094BFA685A64FB68181C86
S11339E0BD4604B080BDC046C8F0FF1F40F00F4084
S11339F0FFFDFFFF00A00440FFF8FFFE70F0FF1F73
S1133A0080B584B000AF7860104BFB60FB687A68C7
S1133A101A600F4B0E4A526908210A435A610C4B33
S1133A200B4A126808218A431A600A4B094AD16872
S1133A30094A0A40802149000A43DA60074BFA68C0
S1133A40DA61FB68181CBD4604B080BDCCF0FF1FD2
S1133A5080F00F4000B00440FFF8FFFE70F0FF1F3D
S1133A6080B582B000AF78600A1CFB1C1A70FB1C86
S1133A701B78002B03D0054B08225A6002E0034B4D
S1133A8008229A60BD4602B080BDC04680F00FF89F
S1133A9080B584B000AF7860104BFB60FB687A6837
S1133AA01A600F4B0E4A526980210A435A610C4B2B
S1133AB00B4A126880218A431A600A4B094AD16969
S1133AC0094A0A40802149000A43DA61074BFA682F
S1133AD05A60FB68181CBD4604B080BDD0F0FF1FBF
S1133AE0C0F00F4000C00440FFF8FFFE70F0FF1F5D
S1133AF080B582B000AF78600A1CFB1C1A70FB1CF6
S1133B001B78002B03D0054B80225A6002E0034B44
S1133B1080229A60BD4602B080BDC046C0F00FF856
S1133B2080B584B000AF7860104BFB60FB687A68A6
S1133B301A600F4B0E4A526902210A435A610C4B18
S1133B400B4A126802218A431A600A4B094A5168D7
S1133B50094A0A40802149000A435A60074BFA681F
S1133B601A60FB68181CBD4604B080BDD4F0FF1F6A
S1133B7000F10F4000D00440FFF8FFFE70F0FF1F7B
S1133B8080B582B000AF78600A1CFB1C1A70FB1C65
S1133B901B78002B03D0054B02225A6002E0034B32
S1133BA002229A60BD4602B080BDC04600F10FF803
S1133BB080B500AF144B1B78002B1DD0134B1B6832
S1133BC0181C00F075F9124B1B78DBB2002B18D0CF
S1133BD0104B00221A70104B00221A700B4B1A68FB
S1133BE00D4B101C191C012200F0C8F9074B1B686F
S1133BF0181C00F081F904E0044B1B68181C00F049
S1133C0063F9BD4680BDC046D8F0FF1F20F1FF1FF9
S1133C10D9F0FF1FE0F0FF1FDCF0FF1F80B500AFFD
S1133C20074B1B78002B01D0002305E0044B012235
S1133C301A70FFF7BDFF0023181CBD4680BDC046A7
S1133C40D8F0FF1F80B500AF074B1B78002B01D1C4
S1133C50002305E0044B00221A70FFF7A9FF00239C
S1133C60181CBD4680BDC046D8F0FF1F80B500AF0C
S1133C700A4B1B78002B01D107230CE0084B1B785F
S1133C80DBB2002B01D0082305E0054B02221A7099
S1133C90FFF78EFF0023181CBD4680BDD8F0FF1F20
S1133CA0D9F0FF1F80B500AF094B1B78DBB2022BA4
S1133CB001D0082308E0064B00221A70054B1B684C
S1133CC0181C00F041F90023181CBD4680BDC046F5
S1133CD0D9F0FF1F20F1FF1F80B582B000AF7860DC
S1133CE0084B1B78DBB2002B01D1092305E0064BFE
S1133CF01B889AB27B681A800023181CBD4602B048
S1133D0080BDC046E0F0FF1F1CF1FF1F80B582B0EC
S1133D1000AF78601F4B1B78DBB2002B35D01D4BF6
S1133D201B78DBB2042B0AD11B4B1B68181C00F058
S1133D3095F9184B00221A7000F06EFB26E0164B22
S1133D401A68164B101C191C00F052F9144B01226E
S1133D501A7000F025FB0F4B1B78DBB2012B03D14B
S1133D600C4B00221A7011E00E4B00221A700A4B01
S1133D701A680C4B101C191C012200F0FFF8064BAA
S1133D801B68181C00F0B8F800E0C046BD4602B03D
S1133D9080BDC046D9F0FF1F20F1FF1F1CF1FF1F9B
S1133DA0E0F0FF1FDCF0FF1F80B500AF084B0122DD
S1133DB01A70084B00221A70074B00221A70002058
S1133DC000F00EF8021C054B1A60BD4680BDC046CB
S1133DD0D8F0FF1FE0F0FF1FD9F0FF1F20F1FF1FF5
S1133DE080B584B000AF7860284BFB60FB687A68CC
S1133DF05A60274BFA681A60FB6800221A70FB6845
S1133E0001225A70FB680022DA70224A2149224BAF
S1133E10CB588021090519431F4BD1501F4A1F4914
S1133E20C3239B00CB581B021B0A8021090619439C
S1133E30C3239B00D150194B184A126880210902F0
S1133E400A431A60164B164A5169164A0A405A61C7
S1133E50154B154AD26810210A43DA60124B6C22C2
S1133E609A60114B104AD2680F218A43DA600E4BD4
S1133E7000221A620C4B40225A620C4BFA681A61F7
S1133E80FB68181CBD4604B080BDC046E4F0FF1FAB
S1133E90ECF0FF1F007004403C10000000E100E063
S1133EA000C00440FFF8FFFE00B0034070F0FF1FA5
S1133EB080B582B000AF78607B6801225A7000231D
S1133EC0181CBD4602B080BD80B582B000AF7860DA
S1133ED07B6800225A70074B064A126A40218A43C3
S1133EE01A62044B1F221A600023181CBD4602B03C
S1133EF080BDC04600B0034080B582B000AF78609A
S1133F007B685B78002B01D1072317E00D4B1A6AFD
S1133F108023134001D0082310E00A4B094A526A57
S1133F2008218A435A62074B064A126A40218A438F
S1133F301A62044B7A6892781A600023181CBD46F2
S1133F4002B080BD00B0034080B582B000AF78609D
S1133F507B685B78002B01D1072309E0064B064AF6
S1133F60126A40218A431A62034B1F221A600023FB
S1133F70181CBD4602B080BD00B0034080B586B0B9
S1133F8000AFF860B960FB1D1A70FB687B61FB68C9
S1133F905B78002B01D1072321E0FB1D1B78012B4B
S1133FA003D8FB1D1B78002B01D1962317E00E4B81
S1133FB01A6A8023134001D0082310E07B69FA1D9C
S1133FC012781A70BB681B78002B01D0822306E09C
S1133FD0BB681B78054AD25C7B699A700023181C65
S1133FE0BD4606B080BDC04600B00340585700002F
S1133FF080B584B000AF786039603B68BB607B6893
S11340005B78002B01D1072322E03B1C0F330022F5
S11340101A7015E03B1C0F331B785B00BA68D31889
S11340200D4A391C0F310978043189008A5892B23B
S11340301A803B1C0F333A1C0F32127801321A706B
S11340407B681B783A1C0F3212789A42E2D3002321
S1134050181CBD4604B080BD00B0034080B584B0D8
S113406000AF78602A4B5A6A4023134001D01B23C7
S11340704AE0274BDB6CFB60254B9B6CFA68D3183A
S1134080FB60234B5B6CFA68D318FB60204B1B6C02
S1134090FA68D318FB601E4BDB6BFA68D318FB601D
S11340A01B4B9B6BFA68D318FB60FB685B08802290
S11340B012021343FB60164BFA68DA62144BDB6E90
S11340C0FB60134B9B6EFA68D318FB60104B5B6E5E
S11340D0FA68D318FB600E4B1B6EFA68D318FB60AA
S11340E00B4BDB6DFA68D318FB60094B9B6DFA68C8
S11340F0D318FB60FB685B08802212021343FB6049
S1134100034BFA681A630023181CBD4604B080BD33
S113411000B0034080B582B000AF084B1B687B60E1
S11341207B680122DA707B685B68181CFFF7EEFD80
S1134130034B1B69BD4602B080BDC046ECF0FF1FB7
S113414000B0034080B500AF054A064BD31A054AB8
S1134150101C00211A1C00F04FFABD4680BDC04659
S113416098F4FF1F08F0FF1F01F07EFAFFF7F4F93F
S1134170FFF7E8FF01F050FA01F0ECF901F082FAE0
S1134180044B0020191C00F00FF8031C181C00F04D
S113419017FAC046F0F0FF1F80B582B000AF786018
S11341A0FEE7C04600000000F0B583B000AFFFF7A3
S11341B04DFAFFF75BFD6E4B9B6A181C0121FFF75C
S11341C089FB6B4B9A696B4B101C191CFFF738F970
S11341D0674B1A6A674B101C191CFEF7F1FF644BFE
S11341E0DB69181C0021FFF73BFC614B5B6A181C60
S11341F00021FFF7B9FB00E0C0465F4B1B78012BA1
S1134200FAD15D4B00221A7012237B6042E05B4BB3
S11342101A685B4B1B68D31A181CFEF741FC031C7D
S11342200C1C4C494A481A1C231CFDF7E3F9031CD7
S11342300C1C1D1C261C534B7A689200D258504B00
S11342401B68D31A181CFEF72BFC031C0C1C281C1F
S1134250311C1A1C231CFDF7C7FD031C0C1C181C65
S1134260211C3D4A3D4BFCF757F9031C002B07D09A
S11342707B681A1C123A444B92000021D15006E08C
S11342807B681A1C123A404B92000121D1507B6882
S113429001337B607B686D2BB9DD00237B601BE001
S11342A0394B7A689200D358002B12D17B685A1C80
S11342B0354B9200D358002B0BD17B689A1C324BA0
S11342C09200D358002B04D17B689AB22F4B1A80EA
S11342D005E07B6801337B607B68592BE0DD244B70
S11342E01D6B2A4B1B881BB25A22D31A181CFEF7CB
S11342F09DFB031C0C1C181C211C194A194BFDF7AF
S113430073FD031C0C1C181C211C174A174BFCF7CB
S1134310C5FD031C0C1C181C211CFCF76DF9031CA7
S11343209BB2281C191CFEF7EBFF144B00221A60E9
S1134330134B174A1A60FFF771FCFFF797FC0C4BFD
S1134340DB68181CFEF756FC56E7C046C046C0465C
S11343500000000000001040000000000000F03FDA
S1134360ED0DBE3099AA1A400000000000F8D140BB
S113437070F0FF1FB0360000F6F0FF1FF8F0FF1FCB
S113438000F0FF1F94F2FF1F24F1FF1FFCF0FF1F3A
S1134390FFFF0000C046C04680B500AFBD4680BDEB
S11343A080B500AF164B1B78802B27D8154B181CF3
S11343B0FFF792FC144B1B781A1C124B1968134B11
S11343C09200D1500F4B1A68114B1B689A4207D9BF
S11343D00C4B1B68002B03D00A4B1A680C4B1A6059
S11343E0084B1A680B4B1B689A4207D2054B1B6893
S11343F0002B03D0034B1A68064B1A60BD4680BDE0
S1134400F4F0FF1F94F4FF1FF5F0FF1F94F2FF1F59
S1134410F8F0FF1F00F0FF1F80B500AFBD4680BD60
S113442080B500AF294B1B78802B1CD8284B1B78F8
S1134430012B0FD1254B1B78012B05D8254B5B682D
S1134440181C0021FFF754FB204B1B780133DAB210
S11344501E4B1A701E4B1B785A425341DBB21A1C76
S11344601B4B1A7019E01A4B00221A70174B0022CA
S11344701A70184B1A68164B1B78101C191CFFF77E
S11344807FFB144BDB68181CFEF7CCFBFFF70AFC20
S1134490FFF7D8FB104B01221A700C4B1B78002B32
S11344A009D10B4B1B78002B05D10A4B5B68181CF8
S11344B00121FFF71DFB074B1A68054B1B78101CE5
S11344C0191CFFF75DFBBD4680BDC046F5F0FF1F1C
S11344D0F4F0FF1F70F0FF1FF6F0FF1F80B500AF70
S11344E02F4B1B881AB22F4B1B881BB2D31ADA1717
S11344F09B1853409AB22C4B1A80294B1B881AB232
S1134500284B1B881BB2D31A03D5284B00221A80D0
S113451002E0264B01221A80234B1B881BB2192B65
S113452027DD234B9B6B181C0121FFF75BF91F4B05
S11345301B88002B0ED11E4B9A691E4B101C191C94
S1134540FEF77EFF1A4B1A6A1B4B101C191CFEF750
S113455037FE22E0164B9A69174B101C191CFEF704
S11345606FFF134B1A6A134B101C191CFEF728FE1D
S113457013E00F4B9B6B181C0021FFF733F90C4B16
S11345809A690E4B101C191CFEF75AFF084B1A6A45
S11345900A4B101C191CFEF713FEBD4680BDC04615
S11345A0FEF0FF1FFCF0FF1F00F1FF1F04F0FF1FD0
S11345B070F0FF1F7440000034210000F82A00004E
S11345C038B5051C01F042F800F0E8FF084C2368F8
S11345D0002B02D0984700202060064C2168002957
S11345E002D0884700222260281CFFF7D5FD38BD81
S11345F004F1FF1F08F1FF1F10B5041C00F03EFF7B
S1134600201C10BDF0B589B001901F1C0EAB0391A6
S1134610079202901A78081C01990FAC0138002601
S1134620049225780670B14217D1119BB34214D17C
S1134630049B002B01D06F2D2FD0642D02D0692D47
S113464000D0A8E0022F02D1039802389FE0012F86
S113465000D0A0E00398023894E0692D0ED004D86D
S1134660582D16D0642D1CD108E0752D04D0782D5A
S11346700FD06F2D15D110E0002712E0019A002A07
S11346800FDA80242606B2420DD0514201910291E4
S113469009E000273E1C102407E000273E1C0824E4
S11346A003E0002600E001260A2400900020069082
S11346B00298211CFBF704FF02980591211CFBF7CB
S11346C0BBFE059A0290092A01D8303205E0059A0A
S11346D03732782D01D1059A57320098069B0299FA
S11346E00138D2B2009002700133002901D0069340
S11346F0DEE7011C082C0BD10498002808D0302ACE
S113470006D00B1C013B302200931A70069B023327
S1134710079802280FD1002E01D1002F02D0109942
S113472001391091109A1192102C04D10498002888
S113473001D0023A119203990098119A091A891822
S1134740164A914226DC0099CA181199121A8A4213
S113475003DA013830220270F5E7102C0AD1049CE8
S1134760002C07D0019B002B04D0421E30210238BC
S113477015700170002E02D001382D2108E0012FA0
S113478002D101382B2103E0022F04D1013820216A
S1134790017000E0002009B0F0BDC046FD0100003A
S11347A0F0B5B64C1E1CA5446B460A900B913E33E3
S11347B020210020197008920590089A1578002D80
S11347C000D1F9E10898252100F0ADFE0C900028F5
S11347D011D1089800F0B6FE0599021C081805903E
S11347E0002A00D1E8E10B9808990A9EB0470028F6
S11347F000D0E1E1CEE00C9F089C05993A1B8B1890
S11348000593002A0CD10C980C9A437801321D1E92
S1134810252D0CD000270121BC460D97069119E0E7
S11348200B9808990A9DA8470028ECD1B2E00C9A8D
S11348300021023201240892079106943DE02B2BBB
S11348400BDC202B10D0232B00D0BAE001239C4694
S1134850013213782B2BF2D1ABE12D2B00D1A5E142
S1134860302B00D0ADE004E00D9D012DF0D00220EE
S1134870A0E1069C002CEBD002200690E8E7376804
S11348800436FB43D80F937802321C1C683C002189
S1134890042C00D8C1E0DDB26E2B00D0C7E0013299
S11348A008926E2D00D149E100D900E1632D00D1B9
S11348B059E107D8252D00D0F3E010AC25700996F6
S11348C0012619E0642D00D0EEE0321D0992306813
S11348D0032900D0F6E007996646009601950291F7
S11348E0039790A9069A0D9BFFF78CFE041E00D136
S11348F03FE1634F6F443E1A069800283CD02023C2
S1134900022800D130236F463E373B7022782B2A91
S113491004D02D2A02D0371C202A0BD1371C302B6F
S113492008D10B98211C01220A9B9847002831D0FA
S11349300134771E069902290ED1612D01D0412D33
S11349400AD1012F26DD0B98211C02220A9DA847BB
S113495000281FD0023F0234351C079EB54209DAF5
S113496069460B983E3101220A9B9847002811D0D2
S11349700135F2E73E1C00E0351C002E03D10698F9
S1134980002819D115E0211C0B98321C0A9CA04761
S11349900028F4D10122554205950DE169463F31C5
S11349A020240B9801220A9F0C70B8470028F1D0EC
S11349B00135079FBD42F1DB059A53190593099E02
S11349C0FBE6171C2A2B00D0E1E0341D366807965D
S11349D0002E03DA73420025079306957B78013293
S11349E0261C284F0798B84200DDC2E02E2B11D1B7
S11349F053782A2B00D142E7013200271C1C303C9B
S1134A00092C05D80A214F4301323F191378F5E7E1
S1134A1001203AE70027381C37E71B4D295D1B4D61
S1134A202C57002C00D136E75378013233E76E2B34
S1134A300ADC632B2CD002DC582B30D115E0642B1C
S1134A4013D0692B2BD110E0732B23D009DC6F2BEF
S1134A500BD0702B23D101237825082703219C46F2
S1134A601DE7752B01D0782B19D1002815D0069C91
S1134A70022C00D013E70123069310E7BCFDFFFFCF
S1134A803F020000FD010000625700005D57000076
S1134A90002804D1002902D101E70127FFE6FF2500
S1134AA0FDE6582D65D116E0692D62D10DE7732D11
S1134AB023D002D86F2D5CD10DE0752D0BD0782D4D
S1134AC057D108E0022901D100B204E7012900D03E
S1134AD001E740B2FFE6341D09943068032906D08B
S1134AE0022901D180B202E0012900D1C0B2079E9F
S1134AF06246009201950296F2E63468311D0991EE
S1134B00002C00D12F4C6346002B07D026780134AB
S1134B10002800D1F0E6BE4237DCEDE6002808D0DC
S1134B20201C61463A1C00F0E8FC00282DD0061B2E
S1134B30E2E6201C00F006FD061CDDE6351D0995A5
S1134B403468022907D003290AD0002900D036E7A7
S1134B500598206033E76F461421CB5B23802EE752
S1134B60059A22602BE73368301D10AC099023703E
S1134B70A6E60C9800F0E6FC059E021C3518059587
S1134B80002819D00B980C992FE63E1CB4E600249B
S1134B900794191C3039092900D922E7079D0A23F3
S1134BA06B430132581807901378F2E700270697F1
S1134BB04EE601200D904BE605989124A400A544EF
S1134BC0F0BDC0465C570000F0B50027A9B00590C1
S1134BD006910F9309920D970B9708970A970C97D4
S1134BE00497099D2C78002C00D103E3201C00F0CD
S1134BF047FB002822D0099A01321078099200F06C
S1134C003FFB0028F7D1002F00D0F1E200210698E5
S1134C100A1C059CA047061C00F032FB002803D0A8
S1134C20049B01330493F1E7701C04D12E980028EF
S1134C3000D1DFE201270698311CABE2252C1BD002
S1134C40002F19D1391C06983A1C059EB047C1B2F1
S1134C50A1420AD006980122B0472E9F002F00D10E
S1134C60C8E2099D01350995C2E2049B0999013303
S1134C70013104930991B4E71EAC201C00212822C1
S1134C80FFF7BAFC0998A54E45786660281E2528CA
S1134C900CD1211C14A82822E57000F03BFC099CCF
S1134CA000200234099407900E90D7E02A2D02D0F8
S1134CB0099C013405E0012309992370099C887833
S1134CC00234021C303A092A1FD800260A256E43F2
S1134CD03038013436182078031C303B092BF5D9C1
S1134CE01EAD6E60002E0ED101235942E97014A846
S1134CF0291C2822013400F00DFC2B780994FF258F
S1134D0007960E969DE001266E701EA9682804D0B1
S1134D106C280CD10320887007E0637802228A7023
S1134D20682B02D101258D706419607801341EABA3
S1134D30D8705838202871D8FBF774FB7270702B28
S1134D4070707070707070157270707070727070B6
S1134D507070727211707019707270707200032624
S1134D609E7078215BE09A78002A59D056E09978B1
S1134D70002901D0FF20D87000231EAAD518FF26D1
S1134D8001332E72202BF8D1C121FE2051721073F1
S1134D9046E09D78002D01D0FF26DE7063785E2BFF
S1134DA002D00134002102E0A378012102345D2BFA
S1134DB007D11EAB2020D8746378013401E0E37876
S1134DC00334002B00D139E25D2B00D139E2DDB28E
S1134DD0EA081EAE0720B218184001258540107A53
S1134DE02E1C6578064316722D2D14D1A278002A44
S1134DF011D05D2A0FD001339342E0DCDEB2F0081B
S1134E001EAD281807251D400126AE40351C067A24
S1134E1035430572EFE701342B1CD2E7FF21D9702B
S1134E201EAE311C282214A800F074FB6A467A32A4
S1134E307178107833780E910790F578013476689C
S1134E400994002B06D1252D08D00F9A146804323A
S1134E500F9200E000246E2D01D1ADE10024002F5B
S1134E6001D001270AE00698391C0222059B9847C5
S1134E70002803D02E9F002FF3D1BBE1692D25D04C
S1134E8012D85B2D00D115E106D8252D00D1D3E031
S1134E90582D00D0AEE13EE0632D00D17CE0642DBE
S1134EA000D0A7E10A2012E0732D00D1E6E007D874
S1134EB06E2D00D180E16F2D00D09BE1082030E001
S1134EC0752D2DD0782D00D094E124E00020002F02
S1134ED048D112A913AA11AD01910292311C009577
S1134EE0059A069B00F0E3F9119E002E05D12E9839
S1134EF0002828D101240B947CE1049B129D9E1967
S1134F000496002D05D080210A06904201D0434228
S1134F102AE0031C28E0102003E0C046FFFFFF7FC7
S1134F200A20002F1ED111AB13A912AD00930291D8
S1134F30069B311C0195059A00F0B9F9119E031CDA
S1134F40002E03D1D3E70127331C0DE0049A129DF0
S1134F5090190490002D07D080210E06B34203D08F
S1134F605B4201E001270023002C11D0079E032E91
S1134F7009D8301CFBF756FA06020406237002E037
S1134F80238000E023600C9D794279416A180C92D9
S1134F900A9801300A906EE00E98002800D101268C
S1134FA0002C33D000211191A6198F4200D01FE1AB
S1134FB0B44219D02E9A002A04D01198002811DA8C
S1134FC001230D93002106980A1C059DA84708900B
S1134FD0013009D008AB1D782570119901340131D5
S1134FE01191E5E700240D94119E2E9A002E00D114
S1134FF0A0E0002A03D00D99002900D1F8E0049A1A
S11350000C9C9019013404900C94D1E01194013E4D
S1135010701C0CD0002106980A1C059B9847013E81
S11350200890013003D0119D01351195F0E7119ED0
S1135030002E00D0BCE0DDE0002F00D0D5E0002140
S113504006980A1C059EB047051C00F019F90028B3
S113505003D0049C01340494F1E7252D08D00122E7
S11350600698291CB0472E9A002A00D142E7BCE0DA
S113507004990131049101240B94B2E501230B93AB
S1135080002F17D10698391C3A1C059DA847051C0A
S113509000F0F6F8002806D0049B002101330493A5
S11350A006980A1CF1E701220698291C059B9847DB
S11350B001220B92002C49D0002111918F4200D083
S11350C096E0013E351C711C24D02E9A002A04D08F
S11350D0119B002B1CDC01200D90002106980A1C5A
S11350E0059B98470890013014D008A90B7814A8A0
S11350F0DA088218089807210140127A01208840B2
S1135100104207D02370119D013401351195D8E761
S113511000260D96119B08AE3178002B05D02E98F1
S113512000280AD00D9A002A07D101220698059F6B
S1135130B8472E9A002A5DD05AE00020049E2070C1
S11351400C9CF318013404930C942BE01194013E4D
S1135150351C711C19D0002106980A1C059CA04717
S11351600890013011D008A8017814AACB08089837
S1135170D418072303400121247A9940013E214297
S113518003D0119D01351195E2E7119E002E05D142
S1135190069808990122059B984722E5049B0899E3
S11351A098190490002D03DB06980122059DA84759
S11351B00A9901310A9114E5002C00D111E5079AEE
S11351C0032A00D90DE5101CFBF72CF9070A020786
S11351D06D4610214A5B228003E50498206000E5B7
S11351E068461026335C2370FBE401270B97F8E430
S11351F00127F6E4002106980222059DA8470A9992
S1135200002805D0002928D1012670420C9024E002
S1135210002922D10B9A002A1FD00A9906980A1C49
S1135220059FB8470A99041C02220698B84700282B
S1135230EAD10698211C0122B8470EE0FF211EABDB
S1135240EDE5002900D1EBE520AD2A7828A8D64366
S11352502E7001358542F8D1E2E50C9829B0F0BDF5
S11352608022031C00B5002051008B4204D803485F
S11352700122C3185878104000BDC046675700008B
S11352808022031C00B5002051008B4204D803483F
S11352901022C3185878104000BDC046675700005C
S11352A0031C613B00B5192B00D8203800BDF0B5B4
S11352B087B0059101930D990E9B009200220A601C
S11352C0071C1A60904216DB012814D0242812DC33
S11352D00598904207DD009C0198111CA047012607
S11352E0041C351C02E0141C161C402500220392E9
S11352F0974209D002E0141C161C402501214842A3
S1135300391CFBF799F80390002302930493059842
S1135310864200DD9EE0621C00D19BE060221542C3
S113532000D097E0681E0F28F1D8FBF771F8082E1B
S1135330F03FF0F0F052F0F0F0F0F0F0F052201CFA
S1135340FFF79EFF021E09D00021009C01980A1C51
S1135350A047041C049801300490D8E72B2C07D1F3
S1135360009D0198111CA8470136041C0225CEE7B4
S113537002252D2CCBD1111C0198009B98470D9927
S113538001220136041C0A60C1E7002F02D008255F
S1135390102FBCD10825302CB9D10021009C0198D4
S11353A00A1CA0470136041C0425B0E7582C01D080
S11353B0782C09D1002101980A1C009B98470136DA
S11353C0041C08251027A2E71025002F9FD10827C9
S11353D09DE7002F00D10A270398002805D1012258
S11353E05042391CFBF728F80390201C3038092858
S11353F002D8B84211DB0BE0201CFFF731FF002874
S113540006D0201CFFF74CFF011C3639B94203DDDE
S1135410102D1DD120257AE73738029D039C0123E6
S1135420A54201D80E9B1B68029AC5B27A43D143A8
S11354308D4200D901230E9C801800212360029024
S1135440009D01980A1CA8470136041C10255EE73C
S113545040255CE734273D4003D10C9B02951D6039
S113546004E0049D013E0C9976190E60211C0198FC
S11354700122009CA047029807B0F0BD30B5C9B224
S1135480031C1F2A31D944420323234005D0D21AD6
S1135490C51801700130A842FBD1002905D00D06C2
S11354A00C042C430B02214319435409031C002C04
S11354B00ED0251C013D196059609960D9601961AD
S11354C059619961D9612033002DF3D16301C31867
S11354D0D006400F07D0041C1D1C013C02C5002C43
S11354E0FBD180001B18032422409D18002A03D0FE
S11354F019700133AB42FBD130BD00B5C9B282187B
S1135500904205D0037801308B42F9D1013800E094
S1135510002000BD10B50023934203D0CC5CC454DA
S11355200133F9E710BD00B5C9B20378421C002B62
S113553003D08B4205D0101CF7E74B425941494236
S1135540084000BD00B5431E01331A78002AFBD180
S1135550181A00BD10B50B4C0B4B9C4202D001CC69
S11355608047F9E7094C0A48844202D008CC98479E
S1135570F9E7084C08498C4202D004CC9047F9E77B
S113558010BDC04668580000685800006858000004
S113559068580000685800006858000010B5084CAE
S11355A0084B9C4202D004CC9047F9E7064C0748CC
S11355B0844203D0043C21688847F8E710BDC04604
S11355C068580000685800006858000068580000D7
S11355D000B588421FD0002A1DD00323194207D1E9
S11355E0184205D19A4203D908C9043A08C0F2E71F
S11355F00123194209D1184207D19A4205D90B88CF
S1135600023A038002310230E5E70B78013A037075
S113561001310130DFE700BD38B50B4D002D11D04D
S113562000242B191968002906D02B1958689A6888
S1135630FFF7CEFF0C34F4E75A68002AF5D19868D6
S11356400028F2D138BDC04670580000054B10B593
S11356501C68002C04D0A068616888472468F8E7B7
S113566010BDC04618F1FF1F054B181C002805D0BB
S1135670854681B00020C043009001B0F7467047D2
S113568000300020F74670470C0800004E09000067
S11356904E090000460900003409000034090000E6
S11356A02C09000046090000340900002C09000000
S11356B03409000046090000D8080000D80800009A
S11356C0D80800005209000008170000D418000090
S11356D0C819000064190000C81900003E19000030
S11356E0C819000064190000D4180000D418000080
S11356F03E19000064190000EA190000EA190000CC
S1135700EA190000D0190000181F000074210000DD
S11357107421000048210000C0200000C0200000C7
S11357206821000048210000C0200000682100001A
S1135730C02000004821000060210000602100001A
S1135740602100007821000000000000000000003B
S113575003000000000000004600000000010000FB
S1135760000102000000030080808080808080802F
S113577080909090909080808080808080808080D5
S113578080808080808080801804040404040404E1
S113579004040404040404040202020202020202D5
S11357A00202040404040404044343434343434102
S11357B041414141414141414141414141414141D5
S11357C04141410404040404042323232323232107
S11357D021212121212121212121212121212121B5
S11357E021212104040404800000000000000000C2
S11357F000000000000000000000000000000000A5
S11358000000000000000000000000000000000094
S11358100000000000000000000000000000000084
S11358200000000000000000000000000000000074
S11358300000000000000000000000000000000064
S11358400000000000000000000000000000000054
S11358500000000000000000000000000000000044
S10B586000000000000000003C
S10B5868FFFF00000100000035
S11358706858000000F0FF1F08000000000000004E
S10B588000000000000000001C
S903416952
